{
  "contractName": "AgentGroup",
  "abi": [
    {
      "constant": true,
      "inputs": [
        {
          "name": "",
          "type": "uint256"
        }
      ],
      "name": "agents",
      "outputs": [
        {
          "name": "",
          "type": "address"
        }
      ],
      "payable": false,
      "stateMutability": "view",
      "type": "function"
    },
    {
      "inputs": [],
      "payable": false,
      "stateMutability": "nonpayable",
      "type": "constructor"
    },
    {
      "constant": false,
      "inputs": [
        {
          "name": "addr",
          "type": "address"
        }
      ],
      "name": "addAgent",
      "outputs": [],
      "payable": false,
      "stateMutability": "nonpayable",
      "type": "function"
    },
    {
      "constant": false,
      "inputs": [
        {
          "name": "addr",
          "type": "address"
        }
      ],
      "name": "removeAgent",
      "outputs": [],
      "payable": false,
      "stateMutability": "nonpayable",
      "type": "function"
    },
    {
      "constant": true,
      "inputs": [],
      "name": "getNumAgents",
      "outputs": [
        {
          "name": "",
          "type": "uint256"
        }
      ],
      "payable": false,
      "stateMutability": "view",
      "type": "function"
    }
  ],
  "bytecode": "0x6060604052341561000f57600080fd5b600080548060010182816100239190610077565b9160005260206000209001600033909190916101000a81548173ffffffffffffffffffffffffffffffffffffffff021916908373ffffffffffffffffffffffffffffffffffffffff160217905550506100c8565b81548183558181151161009e5781836000526020600020918201910161009d91906100a3565b5b505050565b6100c591905b808211156100c15760008160009055506001016100a9565b5090565b90565b6105bc806100d76000396000f300606060405260043610610062576000357c0100000000000000000000000000000000000000000000000000000000900463ffffffff168063513856c81461006757806384e79842146100ca57806397a6278e14610103578063dc7926461461013c575b600080fd5b341561007257600080fd5b6100886004808035906020019091905050610165565b604051808273ffffffffffffffffffffffffffffffffffffffff1673ffffffffffffffffffffffffffffffffffffffff16815260200191505060405180910390f35b34156100d557600080fd5b610101600480803573ffffffffffffffffffffffffffffffffffffffff169060200190919050506101a4565b005b341561010e57600080fd5b61013a600480803573ffffffffffffffffffffffffffffffffffffffff169060200190919050506102b1565b005b341561014757600080fd5b61014f610507565b6040518082815260200191505060405180910390f35b60008181548110151561017457fe5b90600052602060002090016000915054906101000a900473ffffffffffffffffffffffffffffffffffffffff1681565b600080600090505b60008054905081101561023d576000818154811015156101c857fe5b906000526020600020900160009054906101000a900473ffffffffffffffffffffffffffffffffffffffff1673ffffffffffffffffffffffffffffffffffffffff163373ffffffffffffffffffffffffffffffffffffffff161415610230576001915061023d565b80806001019150506101ac565b81151561024957600080fd5b6000805480600101828161025d9190610513565b9160005260206000209001600085909190916101000a81548173ffffffffffffffffffffffffffffffffffffffff021916908373ffffffffffffffffffffffffffffffffffffffff16021790555050505050565b600080600080600090505b60008054905081101561034d576000818154811015156102d857fe5b906000526020600020900160009054906101000a900473ffffffffffffffffffffffffffffffffffffffff1673ffffffffffffffffffffffffffffffffffffffff163373ffffffffffffffffffffffffffffffffffffffff161415610340576001915061034d565b80806001019150506102bc565b81151561035957600080fd5b60009350600092505b60008054905083101561048c57831561040c5760008381548110151561038457fe5b906000526020600020900160009054906101000a900473ffffffffffffffffffffffffffffffffffffffff166000600185038154811015156103c257fe5b906000526020600020900160006101000a81548173ffffffffffffffffffffffffffffffffffffffff021916908373ffffffffffffffffffffffffffffffffffffffff1602179055505b8473ffffffffffffffffffffffffffffffffffffffff1660008481548110151561043257fe5b906000526020600020900160009054906101000a900473ffffffffffffffffffffffffffffffffffffffff1673ffffffffffffffffffffffffffffffffffffffff16141561047f57600193505b8280600101935050610362565b60006001600080549050038154811015156104a357fe5b906000526020600020900160006101000a81549073ffffffffffffffffffffffffffffffffffffffff021916905560016000818180549050039150816104e9919061053f565b5060006104f4610507565b11151561050057600080fd5b5050505050565b60008080549050905090565b81548183558181151161053a57818360005260206000209182019101610539919061056b565b5b505050565b81548183558181151161056657818360005260206000209182019101610565919061056b565b5b505050565b61058d91905b80821115610589576000816000905550600101610571565b5090565b905600a165627a7a72305820bd9936918d8c622d938afbc93fd7e98c6c2dcb2ab8fa5b4ec934388de7c8a4120029",
  "source": "pragma solidity ^0.4.15;\n\n//Represents a set of agents who represent themself as one\ncontract AgentGroup {\n  address[] public agents;\n\n  modifier isOwner() {\n    bool enable;\n    for(uint i = 0; i < agents.length; i++) {\n      if(msg.sender == agents[i]) {\n        enable = true;\n        break;\n      }\n    }\n    if(!enable) revert();\n    _;\n  }\n\n  function AgentGroup() public {\n    agents.push(msg.sender);\n  }\n\n  function addAgent(address addr) public isOwner {\n    agents.push(addr);\n  }\n\n  function removeAgent(address addr) public isOwner {\n    bool overwrite = false;\n    for(uint i = 0; i < agents.length; i++) {\n      if(overwrite) {\n        agents[i - 1] = agents[i];\n      }\n      if(agents[i] == addr) {\n        overwrite = true;\n      }\n    }\n    delete(agents[agents.length-1]);\n    agents.length -= 1;\n    require(getNumAgents() > 0);\n  }\n\n  function getNumAgents() public constant returns (uint) {\n    return agents.length;\n  }\n}\n",
  "sourcePath": "/home/firescar96/Documents/MIT/MEng/research/medrec/SmartContracts/contracts/AgentGroup.sol",
  "compiler": {
    "name": "solc",
    "version": "0.4.19+commit.c4cbbb05.Emscripten.clang"
  },
  "schemaVersion": "2.0.0",
  "updatedAt": "2018-06-05T05:32:07.934Z"
}