{
  "contractName": "Agent",
  "abi": [
    {
      "constant": true,
      "inputs": [
        {
          "name": "",
          "type": "uint256"
        }
      ],
      "name": "custodianEnabled",
      "outputs": [
        {
          "name": "",
          "type": "bool"
        }
      ],
      "payable": false,
      "stateMutability": "view",
      "type": "function"
    },
    {
      "constant": true,
      "inputs": [
        {
          "name": "",
          "type": "uint256"
        }
      ],
      "name": "custodians",
      "outputs": [
        {
          "name": "",
          "type": "address"
        }
      ],
      "payable": false,
      "stateMutability": "view",
      "type": "function"
    },
    {
      "constant": true,
      "inputs": [
        {
          "name": "",
          "type": "uint256"
        }
      ],
      "name": "relationships",
      "outputs": [
        {
          "name": "",
          "type": "address"
        }
      ],
      "payable": false,
      "stateMutability": "view",
      "type": "function"
    },
    {
      "constant": true,
      "inputs": [],
      "name": "agentEnabled",
      "outputs": [
        {
          "name": "",
          "type": "bool"
        }
      ],
      "payable": false,
      "stateMutability": "view",
      "type": "function"
    },
    {
      "constant": true,
      "inputs": [],
      "name": "agent",
      "outputs": [
        {
          "name": "",
          "type": "address"
        }
      ],
      "payable": false,
      "stateMutability": "view",
      "type": "function"
    },
    {
      "inputs": [],
      "payable": false,
      "stateMutability": "nonpayable",
      "type": "constructor"
    },
    {
      "constant": false,
      "inputs": [
        {
          "name": "addr",
          "type": "address"
        }
      ],
      "name": "setAgent",
      "outputs": [],
      "payable": false,
      "stateMutability": "nonpayable",
      "type": "function"
    },
    {
      "constant": false,
      "inputs": [
        {
          "name": "enable",
          "type": "bool"
        }
      ],
      "name": "enableAgent",
      "outputs": [],
      "payable": false,
      "stateMutability": "nonpayable",
      "type": "function"
    },
    {
      "constant": false,
      "inputs": [
        {
          "name": "addr",
          "type": "address"
        }
      ],
      "name": "addCustodian",
      "outputs": [],
      "payable": false,
      "stateMutability": "nonpayable",
      "type": "function"
    },
    {
      "constant": false,
      "inputs": [
        {
          "name": "addr",
          "type": "address"
        }
      ],
      "name": "removeCustodian",
      "outputs": [],
      "payable": false,
      "stateMutability": "nonpayable",
      "type": "function"
    },
    {
      "constant": false,
      "inputs": [
        {
          "name": "addr",
          "type": "address"
        },
        {
          "name": "enable",
          "type": "bool"
        }
      ],
      "name": "enableCustodian",
      "outputs": [],
      "payable": false,
      "stateMutability": "nonpayable",
      "type": "function"
    },
    {
      "constant": false,
      "inputs": [
        {
          "name": "r",
          "type": "address"
        }
      ],
      "name": "addRelationship",
      "outputs": [],
      "payable": false,
      "stateMutability": "nonpayable",
      "type": "function"
    },
    {
      "constant": true,
      "inputs": [],
      "name": "getNumRelationships",
      "outputs": [
        {
          "name": "",
          "type": "uint256"
        }
      ],
      "payable": false,
      "stateMutability": "view",
      "type": "function"
    },
    {
      "constant": true,
      "inputs": [],
      "name": "getNumEnabledOwners",
      "outputs": [
        {
          "name": "",
          "type": "uint256"
        }
      ],
      "payable": false,
      "stateMutability": "view",
      "type": "function"
    },
    {
      "constant": true,
      "inputs": [],
      "name": "getNumCustodians",
      "outputs": [
        {
          "name": "",
          "type": "uint256"
        }
      ],
      "payable": false,
      "stateMutability": "view",
      "type": "function"
    }
  ],
  "bytecode": "0x6060604052341561000f57600080fd5b336000806101000a81548173ffffffffffffffffffffffffffffffffffffffff021916908373ffffffffffffffffffffffffffffffffffffffff1602179055506001600060146101000a81548160ff02191690831515021790555061122e806100796000396000f3006060604052600436106100d0576000357c0100000000000000000000000000000000000000000000000000000000900463ffffffff1680630f12a66a146100d5578063108fd0cc1461010e5780632299bda6146101495780632788aa71146101ac5780636ca9677a146101d157806379bda9371461021557806385d95b811461024e57806394aa27181461028757806399d29e71146102ea578063bcf685ed14610317578063c23a0d2814610350578063e968177e14610379578063f5ff5c76146103a2578063faea7b2c146103f7575b600080fd5b34156100e057600080fd5b61010c600480803573ffffffffffffffffffffffffffffffffffffffff16906020019091905050610420565b005b341561011957600080fd5b61012f60048080359060200190919050506107d7565b604051808215151515815260200191505060405180910390f35b341561015457600080fd5b61016a600480803590602001909190505061080a565b604051808273ffffffffffffffffffffffffffffffffffffffff1673ffffffffffffffffffffffffffffffffffffffff16815260200191505060405180910390f35b34156101b757600080fd5b6101cf60048080351515906020019091905050610849565b005b34156101dc57600080fd5b610213600480803573ffffffffffffffffffffffffffffffffffffffff1690602001909190803515159060200190919050506109cc565b005b341561022057600080fd5b61024c600480803573ffffffffffffffffffffffffffffffffffffffff16906020019091905050610ab3565b005b341561025957600080fd5b610285600480803573ffffffffffffffffffffffffffffffffffffffff16906020019091905050610c69565b005b341561029257600080fd5b6102a86004808035906020019091905050610e63565b604051808273ffffffffffffffffffffffffffffffffffffffff1673ffffffffffffffffffffffffffffffffffffffff16815260200191505060405180910390f35b34156102f557600080fd5b6102fd610ea2565b604051808215151515815260200191505060405180910390f35b341561032257600080fd5b61034e600480803573ffffffffffffffffffffffffffffffffffffffff16906020019091905050610eb5565b005b341561035b57600080fd5b610363611048565b6040518082815260200191505060405180910390f35b341561038457600080fd5b61038c6110d2565b6040518082815260200191505060405180910390f35b34156103ad57600080fd5b6103b56110df565b604051808273ffffffffffffffffffffffffffffffffffffffff1673ffffffffffffffffffffffffffffffffffffffff16815260200191505060405180910390f35b341561040257600080fd5b61040a611104565b6040518082815260200191505060405180910390f35b600080600080600060149054906101000a900460ff16801561048e57506000809054906101000a900473ffffffffffffffffffffffffffffffffffffffff1673ffffffffffffffffffffffffffffffffffffffff163373ffffffffffffffffffffffffffffffffffffffff16145b1561049857600191505b600090505b600180549050811015610565576002818154811015156104b957fe5b90600052602060002090602091828204019190069054906101000a900460ff16801561054a57506001818154811015156104ef57fe5b906000526020600020900160009054906101000a900473ffffffffffffffffffffffffffffffffffffffff1673ffffffffffffffffffffffffffffffffffffffff163373ffffffffffffffffffffffffffffffffffffffff16145b156105585760019150610565565b808060010191505061049d565b81151561057157600080fd5b60009350600092505b60018054905083101561070d57831561068d5760018381548110151561059c57fe5b906000526020600020900160009054906101000a900473ffffffffffffffffffffffffffffffffffffffff1660018085038154811015156105d957fe5b906000526020600020900160006101000a81548173ffffffffffffffffffffffffffffffffffffffff021916908373ffffffffffffffffffffffffffffffffffffffff16021790555060028381548110151561063157fe5b90600052602060002090602091828204019190069054906101000a900460ff1660026001850381548110151561066357fe5b90600052602060002090602091828204019190066101000a81548160ff0219169083151502179055505b8473ffffffffffffffffffffffffffffffffffffffff166001848154811015156106b357fe5b906000526020600020900160009054906101000a900473ffffffffffffffffffffffffffffffffffffffff1673ffffffffffffffffffffffffffffffffffffffff16141561070057600193505b828060010193505061057a565b60018080805490500381548110151561072257fe5b906000526020600020900160006101000a81549073ffffffffffffffffffffffffffffffffffffffff0219169055600260016002805490500381548110151561076757fe5b90600052602060002090602091828204019190066101000a81549060ff0219169055600180818180549050039150816107a09190611111565b5060016002818180549050039150816107b9919061113d565b5060006107c4611048565b1115156107d057600080fd5b5050505050565b6002818154811015156107e657fe5b9060005260206000209060209182820401919006915054906101000a900460ff1681565b60018181548110151561081957fe5b90600052602060002090016000915054906101000a900473ffffffffffffffffffffffffffffffffffffffff1681565b600080600060149054906101000a900460ff1680156108b457506000809054906101000a900473ffffffffffffffffffffffffffffffffffffffff1673ffffffffffffffffffffffffffffffffffffffff163373ffffffffffffffffffffffffffffffffffffffff16145b156108be57600191505b600090505b60018054905081101561098b576002818154811015156108df57fe5b90600052602060002090602091828204019190069054906101000a900460ff168015610970575060018181548110151561091557fe5b906000526020600020900160009054906101000a900473ffffffffffffffffffffffffffffffffffffffff1673ffffffffffffffffffffffffffffffffffffffff163373ffffffffffffffffffffffffffffffffffffffff16145b1561097e576001915061098b565b80806001019150506108c3565b81151561099757600080fd5b82600060146101000a81548160ff02191690831515021790555060006109bb611048565b1115156109c757600080fd5b505050565b60008090505b600180549050811015610a98578273ffffffffffffffffffffffffffffffffffffffff16600182815481101515610a0557fe5b906000526020600020900160009054906101000a900473ffffffffffffffffffffffffffffffffffffffff1673ffffffffffffffffffffffffffffffffffffffff161415610a8b5781600282815481101515610a5d57fe5b90600052602060002090602091828204019190066101000a81548160ff021916908315150217905550610a98565b80806001019150506109d2565b6000610aa2611048565b111515610aae57600080fd5b505050565b600080600060149054906101000a900460ff168015610b1e57506000809054906101000a900473ffffffffffffffffffffffffffffffffffffffff1673ffffffffffffffffffffffffffffffffffffffff163373ffffffffffffffffffffffffffffffffffffffff16145b15610b2857600191505b600090505b600180549050811015610bf557600281815481101515610b4957fe5b90600052602060002090602091828204019190069054906101000a900460ff168015610bda5750600181815481101515610b7f57fe5b906000526020600020900160009054906101000a900473ffffffffffffffffffffffffffffffffffffffff1673ffffffffffffffffffffffffffffffffffffffff163373ffffffffffffffffffffffffffffffffffffffff16145b15610be85760019150610bf5565b8080600101915050610b2d565b811515610c0157600080fd5b60038054806001018281610c159190611177565b9160005260206000209001600085909190916101000a81548173ffffffffffffffffffffffffffffffffffffffff021916908373ffffffffffffffffffffffffffffffffffffffff16021790555050505050565b600080600060149054906101000a900460ff168015610cd457506000809054906101000a900473ffffffffffffffffffffffffffffffffffffffff1673ffffffffffffffffffffffffffffffffffffffff163373ffffffffffffffffffffffffffffffffffffffff16145b15610cde57600191505b600090505b600180549050811015610dab57600281815481101515610cff57fe5b90600052602060002090602091828204019190069054906101000a900460ff168015610d905750600181815481101515610d3557fe5b906000526020600020900160009054906101000a900473ffffffffffffffffffffffffffffffffffffffff1673ffffffffffffffffffffffffffffffffffffffff163373ffffffffffffffffffffffffffffffffffffffff16145b15610d9e5760019150610dab565b8080600101915050610ce3565b811515610db757600080fd5b60018054806001018281610dcb9190611177565b9160005260206000209001600085909190916101000a81548173ffffffffffffffffffffffffffffffffffffffff021916908373ffffffffffffffffffffffffffffffffffffffff1602179055505060028054806001018281610e2e91906111a3565b91600052602060002090602091828204019190066001909190916101000a81548160ff02191690831515021790555050505050565b600381815481101515610e7257fe5b90600052602060002090016000915054906101000a900473ffffffffffffffffffffffffffffffffffffffff1681565b600060149054906101000a900460ff1681565b600080600060149054906101000a900460ff168015610f2057506000809054906101000a900473ffffffffffffffffffffffffffffffffffffffff1673ffffffffffffffffffffffffffffffffffffffff163373ffffffffffffffffffffffffffffffffffffffff16145b15610f2a57600191505b600090505b600180549050811015610ff757600281815481101515610f4b57fe5b90600052602060002090602091828204019190069054906101000a900460ff168015610fdc5750600181815481101515610f8157fe5b906000526020600020900160009054906101000a900473ffffffffffffffffffffffffffffffffffffffff1673ffffffffffffffffffffffffffffffffffffffff163373ffffffffffffffffffffffffffffffffffffffff16145b15610fea5760019150610ff7565b8080600101915050610f2f565b81151561100357600080fd5b826000806101000a81548173ffffffffffffffffffffffffffffffffffffffff021916908373ffffffffffffffffffffffffffffffffffffffff160217905550505050565b6000806000809150600060149054906101000a900460ff161561106e5781806001019250505b600090505b6002805490508110156110ca5760028181548110151561108f57fe5b90600052602060002090602091828204019190069054906101000a900460ff16156110bd5781806001019250505b8080600101915050611073565b819250505090565b6000600380549050905090565b6000809054906101000a900473ffffffffffffffffffffffffffffffffffffffff1681565b6000600180549050905090565b8154818355818115116111385781836000526020600020918201910161113791906111dd565b5b505050565b81548183558181151161117257601f016020900481601f0160209004836000526020600020918201910161117191906111dd565b5b505050565b81548183558181151161119e5781836000526020600020918201910161119d91906111dd565b5b505050565b8154818355818115116111d857601f016020900481601f016020900483600052602060002091820191016111d791906111dd565b5b505050565b6111ff91905b808211156111fb5760008160009055506001016111e3565b5090565b905600a165627a7a7230582084a4b64c310f70890ffaef78130567fb396ca94bdf09f104edb3b1bdad1588e40029",
  "source": "pragma solidity ^0.4.15;\n\n//Represents both a Patient and a Provider,\n//Patients list of relationships with different Providers\ncontract Agent {\n  address public agent;\n  bool public agentEnabled;\n  address[] public custodians;\n  bool[] public custodianEnabled;\n  address[] public relationships; //list of Relationship contract addresses\n\n  modifier isOwner() {\n    bool enable;\n    if(agentEnabled && msg.sender == agent) enable = true;\n    for(uint i = 0; i < custodians.length; i++) {\n      if(custodianEnabled[i] && msg.sender == custodians[i]) {\n        enable = true;\n        break;\n      }\n    }\n    if(!enable) revert();\n    _;\n  }\n\n  function Agent() public {\n    agent = msg.sender;\n    agentEnabled = true;\n  }\n\n  function setAgent(address addr) public isOwner {\n    agent = addr;\n  }\n\n  function enableAgent(bool enable) public isOwner {\n    agentEnabled = enable;\n    require(getNumEnabledOwners() > 0);\n  }\n\n  function addCustodian(address addr) public isOwner {\n    custodians.push(addr);\n    custodianEnabled.push(true);\n  }\n\n  function removeCustodian(address addr) public isOwner {\n    bool overwrite = false;\n    for(uint i = 0; i < custodians.length; i++) {\n      if(overwrite) {\n        custodians[i - 1] = custodians[i];\n        custodianEnabled[i-1] = custodianEnabled[i];\n      }\n      if(custodians[i] == addr) {\n        overwrite = true;\n      }\n    }\n    delete(custodians[custodians.length-1]);\n    delete(custodianEnabled[custodianEnabled.length-1]);\n    custodians.length -= 1;\n    custodianEnabled.length -= 1;\n    require(getNumEnabledOwners() > 0);\n  }\n\n  function enableCustodian(address addr, bool enable) public {\n    for(uint i = 0; i < custodians.length; i++) {\n      if(custodians[i] == addr) {\n        custodianEnabled[i] = enable;\n        break;\n      }\n    }\n    require(getNumEnabledOwners() > 0);\n  }\n\n  function addRelationship(address r) public isOwner {\n    relationships.push(r);\n  }\n\n  function getNumRelationships() public constant returns (uint) {\n    return relationships.length;\n  }\n\n  function getNumEnabledOwners() public constant returns (uint) {\n    uint num = 0;\n    if(agentEnabled) num++;\n    for(uint i = 0; i < custodianEnabled.length; i++) {\n      if(custodianEnabled[i]) num++;\n    }\n    return num;\n  }\n\n  function getNumCustodians() public constant returns (uint) {\n    return custodians.length;\n  }\n}\n",
  "sourcePath": "/home/firescar96/Documents/MIT/MEng/research/medrec/SmartContracts/contracts/Agent.sol",
  "compiler": {
    "name": "solc",
    "version": "0.4.19+commit.c4cbbb05.Emscripten.clang"
  },
  "schemaVersion": "2.0.0",
  "updatedAt": "2018-06-05T05:32:07.932Z"
}