{
  "contractName": "AgentRegistry",
  "abi": [
    {
      "constant": true,
      "inputs": [
        {
          "name": "",
          "type": "address"
        }
      ],
      "name": "isProspective",
      "outputs": [
        {
          "name": "",
          "type": "bool"
        }
      ],
      "payable": false,
      "stateMutability": "view",
      "type": "function"
    },
    {
      "constant": true,
      "inputs": [
        {
          "name": "",
          "type": "address"
        }
      ],
      "name": "isKicked",
      "outputs": [
        {
          "name": "",
          "type": "bool"
        }
      ],
      "payable": false,
      "stateMutability": "view",
      "type": "function"
    },
    {
      "constant": true,
      "inputs": [
        {
          "name": "",
          "type": "address"
        }
      ],
      "name": "isSigner",
      "outputs": [
        {
          "name": "",
          "type": "bool"
        }
      ],
      "payable": false,
      "stateMutability": "view",
      "type": "function"
    },
    {
      "constant": true,
      "inputs": [
        {
          "name": "",
          "type": "address"
        }
      ],
      "name": "agentFromContract",
      "outputs": [
        {
          "name": "",
          "type": "address"
        }
      ],
      "payable": false,
      "stateMutability": "view",
      "type": "function"
    },
    {
      "inputs": [
        {
          "name": "name",
          "type": "string"
        },
        {
          "name": "contractAddr",
          "type": "address"
        },
        {
          "name": "host",
          "type": "string"
        }
      ],
      "payable": false,
      "stateMutability": "nonpayable",
      "type": "constructor"
    },
    {
      "anonymous": false,
      "inputs": [
        {
          "indexed": true,
          "name": "addr",
          "type": "address"
        }
      ],
      "name": "AddSigner",
      "type": "event"
    },
    {
      "anonymous": false,
      "inputs": [
        {
          "indexed": true,
          "name": "addr",
          "type": "address"
        }
      ],
      "name": "RemoveSigner",
      "type": "event"
    },
    {
      "constant": false,
      "inputs": [
        {
          "name": "name",
          "type": "string"
        }
      ],
      "name": "setAgentName",
      "outputs": [],
      "payable": false,
      "stateMutability": "nonpayable",
      "type": "function"
    },
    {
      "constant": false,
      "inputs": [
        {
          "name": "contractAddr",
          "type": "address"
        }
      ],
      "name": "setAgentContractAddr",
      "outputs": [],
      "payable": false,
      "stateMutability": "nonpayable",
      "type": "function"
    },
    {
      "constant": false,
      "inputs": [
        {
          "name": "host",
          "type": "string"
        }
      ],
      "name": "setAgentHost",
      "outputs": [],
      "payable": false,
      "stateMutability": "nonpayable",
      "type": "function"
    },
    {
      "constant": false,
      "inputs": [
        {
          "name": "name",
          "type": "string"
        }
      ],
      "name": "propose",
      "outputs": [],
      "payable": false,
      "stateMutability": "nonpayable",
      "type": "function"
    },
    {
      "constant": false,
      "inputs": [
        {
          "name": "rip",
          "type": "address"
        }
      ],
      "name": "kick",
      "outputs": [],
      "payable": false,
      "stateMutability": "nonpayable",
      "type": "function"
    },
    {
      "constant": false,
      "inputs": [
        {
          "name": "prospective",
          "type": "address"
        }
      ],
      "name": "rescind",
      "outputs": [],
      "payable": false,
      "stateMutability": "nonpayable",
      "type": "function"
    },
    {
      "constant": false,
      "inputs": [
        {
          "name": "prospective",
          "type": "address"
        },
        {
          "name": "value",
          "type": "bool"
        }
      ],
      "name": "vote",
      "outputs": [],
      "payable": false,
      "stateMutability": "nonpayable",
      "type": "function"
    },
    {
      "constant": true,
      "inputs": [
        {
          "name": "name",
          "type": "string"
        }
      ],
      "name": "getAgentByName",
      "outputs": [
        {
          "name": "",
          "type": "address"
        }
      ],
      "payable": false,
      "stateMutability": "view",
      "type": "function"
    },
    {
      "constant": true,
      "inputs": [
        {
          "name": "addr",
          "type": "address"
        }
      ],
      "name": "getAgentName",
      "outputs": [
        {
          "name": "",
          "type": "string"
        }
      ],
      "payable": false,
      "stateMutability": "view",
      "type": "function"
    },
    {
      "constant": true,
      "inputs": [
        {
          "name": "addr",
          "type": "address"
        }
      ],
      "name": "getAgentContractAddr",
      "outputs": [
        {
          "name": "",
          "type": "address"
        }
      ],
      "payable": false,
      "stateMutability": "view",
      "type": "function"
    },
    {
      "constant": true,
      "inputs": [
        {
          "name": "addr",
          "type": "address"
        }
      ],
      "name": "getAgentHost",
      "outputs": [
        {
          "name": "",
          "type": "string"
        }
      ],
      "payable": false,
      "stateMutability": "view",
      "type": "function"
    },
    {
      "constant": true,
      "inputs": [],
      "name": "getNumSigners",
      "outputs": [
        {
          "name": "",
          "type": "uint256"
        }
      ],
      "payable": false,
      "stateMutability": "view",
      "type": "function"
    },
    {
      "constant": true,
      "inputs": [
        {
          "name": "idx",
          "type": "uint256"
        }
      ],
      "name": "getSigner",
      "outputs": [
        {
          "name": "",
          "type": "address"
        }
      ],
      "payable": false,
      "stateMutability": "view",
      "type": "function"
    },
    {
      "constant": true,
      "inputs": [
        {
          "name": "prospective",
          "type": "address"
        }
      ],
      "name": "getNumVoters",
      "outputs": [
        {
          "name": "",
          "type": "uint256"
        }
      ],
      "payable": false,
      "stateMutability": "view",
      "type": "function"
    },
    {
      "constant": true,
      "inputs": [
        {
          "name": "prospective",
          "type": "address"
        },
        {
          "name": "idx",
          "type": "uint256"
        }
      ],
      "name": "getVoter",
      "outputs": [
        {
          "name": "",
          "type": "address"
        }
      ],
      "payable": false,
      "stateMutability": "view",
      "type": "function"
    },
    {
      "constant": true,
      "inputs": [
        {
          "name": "prospective",
          "type": "address"
        },
        {
          "name": "signer",
          "type": "address"
        }
      ],
      "name": "getVoteInfo",
      "outputs": [
        {
          "name": "",
          "type": "bool"
        }
      ],
      "payable": false,
      "stateMutability": "view",
      "type": "function"
    },
    {
      "constant": true,
      "inputs": [
        {
          "name": "prospective",
          "type": "address"
        }
      ],
      "name": "getNumYayVotes",
      "outputs": [
        {
          "name": "",
          "type": "uint256"
        }
      ],
      "payable": false,
      "stateMutability": "view",
      "type": "function"
    },
    {
      "constant": true,
      "inputs": [],
      "name": "getNumProspectives",
      "outputs": [
        {
          "name": "",
          "type": "uint256"
        }
      ],
      "payable": false,
      "stateMutability": "view",
      "type": "function"
    },
    {
      "constant": true,
      "inputs": [
        {
          "name": "idx",
          "type": "uint256"
        }
      ],
      "name": "getProspective",
      "outputs": [
        {
          "name": "",
          "type": "address"
        }
      ],
      "payable": false,
      "stateMutability": "view",
      "type": "function"
    },
    {
      "constant": true,
      "inputs": [],
      "name": "getNumKicked",
      "outputs": [
        {
          "name": "",
          "type": "uint256"
        }
      ],
      "payable": false,
      "stateMutability": "view",
      "type": "function"
    },
    {
      "constant": true,
      "inputs": [
        {
          "name": "idx",
          "type": "uint256"
        }
      ],
      "name": "getKicked",
      "outputs": [
        {
          "name": "",
          "type": "address"
        }
      ],
      "payable": false,
      "stateMutability": "view",
      "type": "function"
    },
    {
      "constant": true,
      "inputs": [
        {
          "name": "prospective",
          "type": "address"
        }
      ],
      "name": "getProposer",
      "outputs": [
        {
          "name": "",
          "type": "address"
        }
      ],
      "payable": false,
      "stateMutability": "view",
      "type": "function"
    }
  ],
  "bytecode": "0x606060405234156200001057600080fd5b604051620030f9380380620030f9833981016040528080518201919060200180519060200190919080518201919050506003805480600101828162000056919062000328565b9160005260206000209001600033909190916101000a81548173ffffffffffffffffffffffffffffffffffffffff021916908373ffffffffffffffffffffffffffffffffffffffff160217905550506060604051908101604052808481526020018373ffffffffffffffffffffffffffffffffffffffff168152602001828152506000803373ffffffffffffffffffffffffffffffffffffffff1673ffffffffffffffffffffffffffffffffffffffff16815260200190815260200160002060008201518160000190805190602001906200013392919062000357565b5060208201518160010160006101000a81548173ffffffffffffffffffffffffffffffffffffffff021916908373ffffffffffffffffffffffffffffffffffffffff16021790555060408201518160020190805190602001906200019992919062000357565b50905050336001846040518082805190602001908083835b602083101515620001d85780518252602082019150602081019050602083039250620001b1565b6001836020036101000a038019825116818451168082178552505050505050905001915050908152602001604051809103902060006101000a81548173ffffffffffffffffffffffffffffffffffffffff021916908373ffffffffffffffffffffffffffffffffffffffff16021790555033600260008473ffffffffffffffffffffffffffffffffffffffff1673ffffffffffffffffffffffffffffffffffffffff16815260200190815260200160002060006101000a81548173ffffffffffffffffffffffffffffffffffffffff021916908373ffffffffffffffffffffffffffffffffffffffff1602179055506001600460003373ffffffffffffffffffffffffffffffffffffffff1673ffffffffffffffffffffffffffffffffffffffff16815260200190815260200160002060006101000a81548160ff02191690831515021790555050505062000406565b8154818355818115116200035257818360005260206000209182019101620003519190620003de565b5b505050565b828054600181600116156101000203166002900490600052602060002090601f016020900481019282601f106200039a57805160ff1916838001178555620003cb565b82800160010185558215620003cb579182015b82811115620003ca578251825591602001919060010190620003ad565b5b509050620003da9190620003de565b5090565b6200040391905b80821115620003ff576000816000905550600101620003e5565b5090565b90565b612ce380620004166000396000f300606060405260043610610154576000357c0100000000000000000000000000000000000000000000000000000000900463ffffffff16806309475e49146101595780630c99e4581461020b5780631758d62b1461025c5780633ffefe4e146102b95780634e2bd9ce1461031c57806351a3d71a1461035557806352dca174146103b8578063563abf65146103e15780635e9196141461040a578063644c3668146104435780636a9cea53146104b35780636e5e865f146105165780637c8160a51461058f5780637df73e27146105e05780637ffe3a6514610631578063851a974c1461067e57806396c55175146106f7578063aa98df3914610730578063b0034f0f1461078d578063bd041c4d1461082a578063c60623921461086e578063cbd69b4614610920578063d453f9e51461096d578063d4dc4a4b146109ef578063d947a1c814610a68578063f889af0514610a91575b600080fd5b341561016457600080fd5b610190600480803573ffffffffffffffffffffffffffffffffffffffff16906020019091905050610aee565b6040518080602001828103825283818151815260200191508051906020019080838360005b838110156101d05780820151818401526020810190506101b5565b50505050905090810190601f1680156101fd5780820380516001836020036101000a031916815260200191505b509250505060405180910390f35b341561021657600080fd5b610242600480803573ffffffffffffffffffffffffffffffffffffffff16906020019091905050610bd7565b604051808215151515815260200191505060405180910390f35b341561026757600080fd5b6102b7600480803590602001908201803590602001908080601f01602080910402602001604051908101604052809392919081815260200183838082843782019150505050505091905050610bf7565b005b34156102c457600080fd5b6102da6004808035906020019091905050610e18565b604051808273ffffffffffffffffffffffffffffffffffffffff1673ffffffffffffffffffffffffffffffffffffffff16815260200191505060405180910390f35b341561032757600080fd5b610353600480803573ffffffffffffffffffffffffffffffffffffffff16906020019091905050610e5c565b005b341561036057600080fd5b6103766004808035906020019091905050610f01565b604051808273ffffffffffffffffffffffffffffffffffffffff1673ffffffffffffffffffffffffffffffffffffffff16815260200191505060405180910390f35b34156103c357600080fd5b6103cb610f45565b6040518082815260200191505060405180910390f35b34156103ec57600080fd5b6103f4610f52565b6040518082815260200191505060405180910390f35b341561041557600080fd5b610441600480803573ffffffffffffffffffffffffffffffffffffffff16906020019091905050610f5f565b005b341561044e57600080fd5b610499600480803573ffffffffffffffffffffffffffffffffffffffff1690602001909190803573ffffffffffffffffffffffffffffffffffffffff16906020019091905050611060565b604051808215151515815260200191505060405180910390f35b34156104be57600080fd5b6104d460048080359060200190919050506110f4565b604051808273ffffffffffffffffffffffffffffffffffffffff1673ffffffffffffffffffffffffffffffffffffffff16815260200191505060405180910390f35b341561052157600080fd5b61054d600480803573ffffffffffffffffffffffffffffffffffffffff16906020019091905050611138565b604051808273ffffffffffffffffffffffffffffffffffffffff1673ffffffffffffffffffffffffffffffffffffffff16815260200191505060405180910390f35b341561059a57600080fd5b6105c6600480803573ffffffffffffffffffffffffffffffffffffffff169060200190919050506111a3565b604051808215151515815260200191505060405180910390f35b34156105eb57600080fd5b610617600480803573ffffffffffffffffffffffffffffffffffffffff169060200190919050506111c3565b604051808215151515815260200191505060405180910390f35b341561063c57600080fd5b610668600480803573ffffffffffffffffffffffffffffffffffffffff169060200190919050506111e3565b6040518082815260200191505060405180910390f35b341561068957600080fd5b6106b5600480803573ffffffffffffffffffffffffffffffffffffffff1690602001909190505061122f565b604051808273ffffffffffffffffffffffffffffffffffffffff1673ffffffffffffffffffffffffffffffffffffffff16815260200191505060405180910390f35b341561070257600080fd5b61072e600480803573ffffffffffffffffffffffffffffffffffffffff16906020019091905050611298565b005b341561073b57600080fd5b61078b600480803590602001908201803590602001908080601f016020809104026020016040519081016040528093929190818152602001838380828437820191505050505050919050506114fc565b005b341561079857600080fd5b6107e8600480803590602001908201803590602001908080601f01602080910402602001604051908101604052809392919081815260200183838082843782019150505050505091905050611806565b604051808273ffffffffffffffffffffffffffffffffffffffff1673ffffffffffffffffffffffffffffffffffffffff16815260200191505060405180910390f35b341561083557600080fd5b61086c600480803573ffffffffffffffffffffffffffffffffffffffff16906020019091908035151590602001909190505061189b565b005b341561087957600080fd5b6108a5600480803573ffffffffffffffffffffffffffffffffffffffff169060200190919050506121ca565b6040518080602001828103825283818151815260200191508051906020019080838360005b838110156108e55780820151818401526020810190506108ca565b50505050905090810190601f1680156109125780820380516001836020036101000a031916815260200191505b509250505060405180910390f35b341561092b57600080fd5b610957600480803573ffffffffffffffffffffffffffffffffffffffff169060200190919050506122b3565b6040518082815260200191505060405180910390f35b341561097857600080fd5b6109ad600480803573ffffffffffffffffffffffffffffffffffffffff169060200190919080359060200190919050506122fc565b604051808273ffffffffffffffffffffffffffffffffffffffff1673ffffffffffffffffffffffffffffffffffffffff16815260200191505060405180910390f35b34156109fa57600080fd5b610a26600480803573ffffffffffffffffffffffffffffffffffffffff1690602001909190505061237e565b604051808273ffffffffffffffffffffffffffffffffffffffff1673ffffffffffffffffffffffffffffffffffffffff16815260200191505060405180910390f35b3415610a7357600080fd5b610a7b6123b1565b6040518082815260200191505060405180910390f35b3415610a9c57600080fd5b610aec600480803590602001908201803590602001908080601f016020809104026020016040519081016040528093929190818152602001838380828437820191505050505050919050506123be565b005b610af6612b85565b6000808373ffffffffffffffffffffffffffffffffffffffff1673ffffffffffffffffffffffffffffffffffffffff1681526020019081526020016000206002018054600181600116156101000203166002900480601f016020809104026020016040519081016040528092919081815260200182805460018160011615610100020316600290048015610bcb5780601f10610ba057610100808354040283529160200191610bcb565b820191906000526020600020905b815481529060010190602001808311610bae57829003601f168201915b50505050509050919050565b600b6020528060005260406000206000915054906101000a900460ff1681565b600460003373ffffffffffffffffffffffffffffffffffffffff1673ffffffffffffffffffffffffffffffffffffffff16815260200190815260200160002060009054906101000a900460ff161515610c4f57600080fd5b600073ffffffffffffffffffffffffffffffffffffffff166001826040518082805190602001908083835b602083101515610c9f5780518252602082019150602081019050602083039250610c7a565b6001836020036101000a038019825116818451168082178552505050505050905001915050908152602001604051809103902060009054906101000a900473ffffffffffffffffffffffffffffffffffffffff1673ffffffffffffffffffffffffffffffffffffffff16141515610d1557600080fd5b806000803373ffffffffffffffffffffffffffffffffffffffff1673ffffffffffffffffffffffffffffffffffffffff1681526020019081526020016000206000019080519060200190610d6a929190612b99565b50336001826040518082805190602001908083835b602083101515610da45780518252602082019150602081019050602083039250610d7f565b6001836020036101000a038019825116818451168082178552505050505050905001915050908152602001604051809103902060006101000a81548173ffffffffffffffffffffffffffffffffffffffff021916908373ffffffffffffffffffffffffffffffffffffffff16021790555050565b6000600382815481101515610e2957fe5b906000526020600020900160009054906101000a900473ffffffffffffffffffffffffffffffffffffffff169050919050565b3373ffffffffffffffffffffffffffffffffffffffff16600d60008373ffffffffffffffffffffffffffffffffffffffff1673ffffffffffffffffffffffffffffffffffffffff16815260200190815260200160002060009054906101000a900473ffffffffffffffffffffffffffffffffffffffff1673ffffffffffffffffffffffffffffffffffffffff16141515610ef557600080fd5b610efe81612417565b50565b6000600a82815481101515610f1257fe5b906000526020600020900160009054906101000a900473ffffffffffffffffffffffffffffffffffffffff169050919050565b6000600a80549050905090565b6000600380549050905090565b806000803373ffffffffffffffffffffffffffffffffffffffff1673ffffffffffffffffffffffffffffffffffffffff16815260200190815260200160002060010160006101000a81548173ffffffffffffffffffffffffffffffffffffffff021916908373ffffffffffffffffffffffffffffffffffffffff16021790555033600260008373ffffffffffffffffffffffffffffffffffffffff1673ffffffffffffffffffffffffffffffffffffffff16815260200190815260200160002060006101000a81548173ffffffffffffffffffffffffffffffffffffffff021916908373ffffffffffffffffffffffffffffffffffffffff16021790555050565b6000600760008473ffffffffffffffffffffffffffffffffffffffff1673ffffffffffffffffffffffffffffffffffffffff16815260200190815260200160002060008373ffffffffffffffffffffffffffffffffffffffff1673ffffffffffffffffffffffffffffffffffffffff16815260200190815260200160002060009054906101000a900460ff16905092915050565b600060098281548110151561110557fe5b906000526020600020900160009054906101000a900473ffffffffffffffffffffffffffffffffffffffff169050919050565b60008060008373ffffffffffffffffffffffffffffffffffffffff1673ffffffffffffffffffffffffffffffffffffffff16815260200190815260200160002060010160009054906101000a900473ffffffffffffffffffffffffffffffffffffffff169050919050565b600c6020528060005260406000206000915054906101000a900460ff1681565b60046020528060005260406000206000915054906101000a900460ff1681565b6000600560008373ffffffffffffffffffffffffffffffffffffffff1673ffffffffffffffffffffffffffffffffffffffff168152602001908152602001600020805490509050919050565b6000600d60008373ffffffffffffffffffffffffffffffffffffffff1673ffffffffffffffffffffffffffffffffffffffff16815260200190815260200160002060009054906101000a900473ffffffffffffffffffffffffffffffffffffffff169050919050565b600460003373ffffffffffffffffffffffffffffffffffffffff1673ffffffffffffffffffffffffffffffffffffffff16815260200190815260200160002060009054906101000a900460ff1615156112f057600080fd5b600460003373ffffffffffffffffffffffffffffffffffffffff1673ffffffffffffffffffffffffffffffffffffffff16815260200190815260200160002060009054906101000a900460ff16151561134857600080fd5b600c60008273ffffffffffffffffffffffffffffffffffffffff1673ffffffffffffffffffffffffffffffffffffffff16815260200190815260200160002060009054906101000a900460ff161515156113a157600080fd5b60026003805490501115156113b557600080fd5b600a80548060010182816113c99190612c19565b9160005260206000209001600083909190916101000a81548173ffffffffffffffffffffffffffffffffffffffff021916908373ffffffffffffffffffffffffffffffffffffffff160217905550506001600c60008373ffffffffffffffffffffffffffffffffffffffff1673ffffffffffffffffffffffffffffffffffffffff16815260200190815260200160002060006101000a81548160ff02191690831515021790555033600d60008373ffffffffffffffffffffffffffffffffffffffff1673ffffffffffffffffffffffffffffffffffffffff16815260200190815260200160002060006101000a81548173ffffffffffffffffffffffffffffffffffffffff021916908373ffffffffffffffffffffffffffffffffffffffff1602179055506114f981600161189b565b50565b600460003373ffffffffffffffffffffffffffffffffffffffff1673ffffffffffffffffffffffffffffffffffffffff16815260200190815260200160002060009054906101000a900460ff1615151561155557600080fd5b600b60003373ffffffffffffffffffffffffffffffffffffffff1673ffffffffffffffffffffffffffffffffffffffff16815260200190815260200160002060009054906101000a900460ff161515156115ae57600080fd5b600980548060010182816115c29190612c19565b9160005260206000209001600033909190916101000a81548173ffffffffffffffffffffffffffffffffffffffff021916908373ffffffffffffffffffffffffffffffffffffffff160217905550506001600b60003373ffffffffffffffffffffffffffffffffffffffff1673ffffffffffffffffffffffffffffffffffffffff16815260200190815260200160002060006101000a81548160ff02191690831515021790555033600d60003373ffffffffffffffffffffffffffffffffffffffff1673ffffffffffffffffffffffffffffffffffffffff16815260200190815260200160002060006101000a81548173ffffffffffffffffffffffffffffffffffffffff021916908373ffffffffffffffffffffffffffffffffffffffff160217905550600073ffffffffffffffffffffffffffffffffffffffff166001826040518082805190602001908083835b6020831015156117375780518252602082019150602081019050602083039250611712565b6001836020036101000a038019825116818451168082178552505050505050905001915050908152602001604051809103902060009054906101000a900473ffffffffffffffffffffffffffffffffffffffff1673ffffffffffffffffffffffffffffffffffffffff161415156117ad57600080fd5b806000803373ffffffffffffffffffffffffffffffffffffffff1673ffffffffffffffffffffffffffffffffffffffff1681526020019081526020016000206000019080519060200190611802929190612b99565b5050565b60006001826040518082805190602001908083835b602083101515611840578051825260208201915060208101905060208303925061181b565b6001836020036101000a038019825116818451168082178552505050505050905001915050908152602001604051809103902060009054906101000a900473ffffffffffffffffffffffffffffffffffffffff169050919050565b600080600460003373ffffffffffffffffffffffffffffffffffffffff1673ffffffffffffffffffffffffffffffffffffffff16815260200190815260200160002060009054906101000a900460ff1615156118f657600080fd5b600b60008573ffffffffffffffffffffffffffffffffffffffff1673ffffffffffffffffffffffffffffffffffffffff16815260200190815260200160002060009054906101000a900460ff16806119975750600c60008573ffffffffffffffffffffffffffffffffffffffff1673ffffffffffffffffffffffffffffffffffffffff16815260200190815260200160002060009054906101000a900460ff165b15156119a257600080fd5b600760008573ffffffffffffffffffffffffffffffffffffffff1673ffffffffffffffffffffffffffffffffffffffff16815260200190815260200160002060003373ffffffffffffffffffffffffffffffffffffffff1673ffffffffffffffffffffffffffffffffffffffff16815260200190815260200160002060009054906101000a900460ff168015611a36575082155b15611a8a576001600860008673ffffffffffffffffffffffffffffffffffffffff1673ffffffffffffffffffffffffffffffffffffffff168152602001908152602001600020600082825403925050819055505b600760008573ffffffffffffffffffffffffffffffffffffffff1673ffffffffffffffffffffffffffffffffffffffff16815260200190815260200160002060003373ffffffffffffffffffffffffffffffffffffffff1673ffffffffffffffffffffffffffffffffffffffff16815260200190815260200160002060009054906101000a900460ff16158015611b1e5750825b15611b72576001600860008673ffffffffffffffffffffffffffffffffffffffff1673ffffffffffffffffffffffffffffffffffffffff168152602001908152602001600020600082825401925050819055505b82600760008673ffffffffffffffffffffffffffffffffffffffff1673ffffffffffffffffffffffffffffffffffffffff16815260200190815260200160002060003373ffffffffffffffffffffffffffffffffffffffff1673ffffffffffffffffffffffffffffffffffffffff16815260200190815260200160002060006101000a81548160ff021916908315150217905550600660008573ffffffffffffffffffffffffffffffffffffffff1673ffffffffffffffffffffffffffffffffffffffff16815260200190815260200160002060003373ffffffffffffffffffffffffffffffffffffffff1673ffffffffffffffffffffffffffffffffffffffff16815260200190815260200160002060009054906101000a900460ff161515611d3757600560008573ffffffffffffffffffffffffffffffffffffffff1673ffffffffffffffffffffffffffffffffffffffff1681526020019081526020016000208054806001018281611ce79190612c19565b9160005260206000209001600033909190916101000a81548173ffffffffffffffffffffffffffffffffffffffff021916908373ffffffffffffffffffffffffffffffffffffffff160217905550505b6001600660008673ffffffffffffffffffffffffffffffffffffffff1673ffffffffffffffffffffffffffffffffffffffff16815260200190815260200160002060003373ffffffffffffffffffffffffffffffffffffffff1673ffffffffffffffffffffffffffffffffffffffff16815260200190815260200160002060006101000a81548160ff021916908315150217905550821515611dd8576121c4565b6002600160038054905001811515611dec57fe5b04600860008673ffffffffffffffffffffffffffffffffffffffff1673ffffffffffffffffffffffffffffffffffffffff168152602001908152602001600020541015611e38576121c4565b600c60008573ffffffffffffffffffffffffffffffffffffffff1673ffffffffffffffffffffffffffffffffffffffff16815260200190815260200160002060009054906101000a900460ff16156120bb5760009150600090505b600a80549050811015611fbd578115611f3d57600381815481101515611eb557fe5b906000526020600020900160009054906101000a900473ffffffffffffffffffffffffffffffffffffffff16600360018303815481101515611ef357fe5b906000526020600020900160006101000a81548173ffffffffffffffffffffffffffffffffffffffff021916908373ffffffffffffffffffffffffffffffffffffffff1602179055505b8373ffffffffffffffffffffffffffffffffffffffff16600382815481101515611f6357fe5b906000526020600020900160009054906101000a900473ffffffffffffffffffffffffffffffffffffffff1673ffffffffffffffffffffffffffffffffffffffff161415611fb057600191505b8080600101915050611e93565b6003600160038054905003815481101515611fd457fe5b906000526020600020900160006101000a81549073ffffffffffffffffffffffffffffffffffffffff0219169055600160038181805490500391508161201a9190612c45565b506000600460008673ffffffffffffffffffffffffffffffffffffffff1673ffffffffffffffffffffffffffffffffffffffff16815260200190815260200160002060006101000a81548160ff0219169083151502179055508373ffffffffffffffffffffffffffffffffffffffff167f1803740ef72fc16e647c10fe2d31cf61a1578081960c2e3fb7f5aa957e82f55060405160405180910390a26121ba565b600380548060010182816120cf9190612c19565b9160005260206000209001600086909190916101000a81548173ffffffffffffffffffffffffffffffffffffffff021916908373ffffffffffffffffffffffffffffffffffffffff160217905550506001600460008673ffffffffffffffffffffffffffffffffffffffff1673ffffffffffffffffffffffffffffffffffffffff16815260200190815260200160002060006101000a81548160ff0219169083151502179055508373ffffffffffffffffffffffffffffffffffffffff167f637c77a2d598a51d085d4a2413332c45a235a25ee855bf3dfcdc2c8fcf02860f60405160405180910390a25b6121c384612417565b5b50505050565b6121d2612b85565b6000808373ffffffffffffffffffffffffffffffffffffffff1673ffffffffffffffffffffffffffffffffffffffff1681526020019081526020016000206000018054600181600116156101000203166002900480601f0160208091040260200160405190810160405280929190818152602001828054600181600116156101000203166002900480156122a75780601f1061227c576101008083540402835291602001916122a7565b820191906000526020600020905b81548152906001019060200180831161228a57829003601f168201915b50505050509050919050565b6000600860008373ffffffffffffffffffffffffffffffffffffffff1673ffffffffffffffffffffffffffffffffffffffff168152602001908152602001600020549050919050565b6000600560008473ffffffffffffffffffffffffffffffffffffffff1673ffffffffffffffffffffffffffffffffffffffff1681526020019081526020016000208281548110151561234a57fe5b906000526020600020900160009054906101000a900473ffffffffffffffffffffffffffffffffffffffff16905092915050565b60026020528060005260406000206000915054906101000a900473ffffffffffffffffffffffffffffffffffffffff1681565b6000600980549050905090565b806000803373ffffffffffffffffffffffffffffffffffffffff1673ffffffffffffffffffffffffffffffffffffffff1681526020019081526020016000206002019080519060200190612413929190612b99565b5050565b600080600091505b600560008473ffffffffffffffffffffffffffffffffffffffff1673ffffffffffffffffffffffffffffffffffffffff1681526020019081526020016000208054905082101561267c57600760008473ffffffffffffffffffffffffffffffffffffffff1673ffffffffffffffffffffffffffffffffffffffff1681526020019081526020016000206000600560008673ffffffffffffffffffffffffffffffffffffffff1673ffffffffffffffffffffffffffffffffffffffff168152602001908152602001600020848154811015156124f657fe5b906000526020600020900160009054906101000a900473ffffffffffffffffffffffffffffffffffffffff1673ffffffffffffffffffffffffffffffffffffffff1673ffffffffffffffffffffffffffffffffffffffff16815260200190815260200160002060006101000a81549060ff0219169055600660008473ffffffffffffffffffffffffffffffffffffffff1673ffffffffffffffffffffffffffffffffffffffff1681526020019081526020016000206000600560008673ffffffffffffffffffffffffffffffffffffffff1673ffffffffffffffffffffffffffffffffffffffff168152602001908152602001600020848154811015156125f957fe5b906000526020600020900160009054906101000a900473ffffffffffffffffffffffffffffffffffffffff1673ffffffffffffffffffffffffffffffffffffffff1673ffffffffffffffffffffffffffffffffffffffff16815260200190815260200160002060006101000a81549060ff0219169055818060010192505061241f565b600560008473ffffffffffffffffffffffffffffffffffffffff1673ffffffffffffffffffffffffffffffffffffffff16815260200190815260200160002060006126c79190612c71565b600d60008473ffffffffffffffffffffffffffffffffffffffff1673ffffffffffffffffffffffffffffffffffffffff16815260200190815260200160002060006101000a81549073ffffffffffffffffffffffffffffffffffffffff0219169055600860008473ffffffffffffffffffffffffffffffffffffffff1673ffffffffffffffffffffffffffffffffffffffff1681526020019081526020016000206000905560009050600b60008473ffffffffffffffffffffffffffffffffffffffff1673ffffffffffffffffffffffffffffffffffffffff16815260200190815260200160002060009054906101000a900460ff16156129a357600b60008473ffffffffffffffffffffffffffffffffffffffff1673ffffffffffffffffffffffffffffffffffffffff16815260200190815260200160002060006101000a81549060ff0219169055600091505b6009805490508210156129405780156128c05760098281548110151561283857fe5b906000526020600020900160009054906101000a900473ffffffffffffffffffffffffffffffffffffffff1660096001840381548110151561287657fe5b906000526020600020900160006101000a81548173ffffffffffffffffffffffffffffffffffffffff021916908373ffffffffffffffffffffffffffffffffffffffff1602179055505b8273ffffffffffffffffffffffffffffffffffffffff166009838154811015156128e657fe5b906000526020600020900160009054906101000a900473ffffffffffffffffffffffffffffffffffffffff1673ffffffffffffffffffffffffffffffffffffffff16141561293357600190505b8180600101925050612816565b600960016009805490500381548110151561295757fe5b906000526020600020900160006101000a81549073ffffffffffffffffffffffffffffffffffffffff0219169055600160098181805490500391508161299d9190612c45565b50612b80565b600c60008473ffffffffffffffffffffffffffffffffffffffff1673ffffffffffffffffffffffffffffffffffffffff16815260200190815260200160002060006101000a81549060ff0219169055600091505b600a80549050821015612b21578015612aa157600a82815481101515612a1957fe5b906000526020600020900160009054906101000a900473ffffffffffffffffffffffffffffffffffffffff16600a60018403815481101515612a5757fe5b906000526020600020900160006101000a81548173ffffffffffffffffffffffffffffffffffffffff021916908373ffffffffffffffffffffffffffffffffffffffff1602179055505b8273ffffffffffffffffffffffffffffffffffffffff16600a83815481101515612ac757fe5b906000526020600020900160009054906101000a900473ffffffffffffffffffffffffffffffffffffffff1673ffffffffffffffffffffffffffffffffffffffff161415612b1457600190505b81806001019250506129f7565b600a6001600a8054905003815481101515612b3857fe5b906000526020600020900160006101000a81549073ffffffffffffffffffffffffffffffffffffffff02191690556001600a81818054905003915081612b7e9190612c45565b505b505050565b602060405190810160405280600081525090565b828054600181600116156101000203166002900490600052602060002090601f016020900481019282601f10612bda57805160ff1916838001178555612c08565b82800160010185558215612c08579182015b82811115612c07578251825591602001919060010190612bec565b5b509050612c159190612c92565b5090565b815481835581811511612c4057818360005260206000209182019101612c3f9190612c92565b5b505050565b815481835581811511612c6c57818360005260206000209182019101612c6b9190612c92565b5b505050565b5080546000825590600052602060002090810190612c8f9190612c92565b50565b612cb491905b80821115612cb0576000816000905550600101612c98565b5090565b905600a165627a7a7230582072d5768e199dd99a54859e584a62bcd4a7cb513733d7c589010fb03ace3eb4880029",
  "source": "pragma solidity ^0.4.15;\n\n//Contains\ncontract AgentRegistry {\n  struct Agent {\n    string name;\n    address contractAddr;\n    string host;\n  }\n  mapping(address => Agent) agentInfo;\n  mapping(string => address) agentByName;\n  mapping(address => address) public agentFromContract;\n\n  //the current set of signers\n  address[] signers;\n  mapping(address => bool) public isSigner;\n  //keeps track of votes per signer and the yay count\n  mapping( address => address[]) voters;\n  mapping( address => mapping(address => bool)) hasVoted;\n  mapping( address => mapping(address => bool)) voteInfo;\n  mapping( address => uint) yayVotes;\n  //prospectives is a list of all prospective waiting to be voted\n  address[] prospectives;\n  //kicked is a list of all signers on the chopping block to be voted out\n  address[] kicked;\n  mapping(address => bool) public  isProspective;\n  mapping(address => bool) public  isKicked;\n  //keeps track of who's idea each proposal was\n  mapping(address => address) proposer;\n\n  event AddSigner(address indexed addr);\n  event RemoveSigner(address indexed addr);\n\n  modifier onlySigners() {\n    require(isSigner[msg.sender]);\n    _;\n  }\n\n  function AgentRegistry(string name, address contractAddr, string host) public {\n    signers.push(msg.sender);\n    agentInfo[msg.sender] = Agent(name, contractAddr, host);\n    agentByName[name] = msg.sender;\n    agentFromContract[contractAddr] = msg.sender;\n    isSigner[msg.sender] = true;\n  }\n\n  // to prevent fraud only signers are allowed to set a name\n  function setAgentName(string name) onlySigners() public {\n      //throw if the proposed name is already taken\n      require(agentByName[name] == address(0));\n\n      agentInfo[msg.sender].name = name;\n      agentByName[name] = msg.sender;\n  }\n\n  function setAgentContractAddr(address contractAddr) public {\n      agentInfo[msg.sender].contractAddr = contractAddr;\n      agentFromContract[contractAddr] = msg.sender;\n  }\n\n  function setAgentHost(string host) public {\n      agentInfo[msg.sender].host = host;\n  }\n\n  //the caller proposes to add themself to the set of signers\n  //the name is used to identify the new signer\n  function propose(string name) public {\n    require(!isSigner[msg.sender]);\n    require(!isProspective[msg.sender]);\n\n    prospectives.push(msg.sender);\n    isProspective[msg.sender] = true;\n    proposer[msg.sender] = msg.sender;\n\n    //throw if the proposed name is already taken\n    require(agentByName[name] == address(0));\n    agentInfo[msg.sender].name = name;\n  }\n\n  //propose a signer to be kicked\n  function kick (address rip) public onlySigners {\n    require(isSigner[msg.sender]);\n    require(!isKicked[rip]);\n    //the blockchain cannot survive with less than 2 signers\n    require(signers.length > 2);\n\n    kicked.push(rip);\n    isKicked[rip] = true;\n    proposer[rip] = msg.sender;\n    vote(rip, true);\n  }\n\n  //the caller recinds their proposal, deleting all cast votes\n  function rescind (address prospective) public {\n    require(proposer[prospective] == msg.sender);\n    clearVotes(prospective);\n  }\n\n  function clearVotes(address prospective) internal {\n    uint i;\n    for(i = 0; i < voters[prospective].length; i++) {\n      delete voteInfo[prospective][voters[prospective][i]];\n      delete hasVoted[prospective][voters[prospective][i]];\n    }\n    delete voters[prospective];\n    delete proposer[prospective];\n    delete yayVotes[prospective];\n\n    bool overwrite = false;\n    if(isProspective[prospective]) {\n      delete isProspective[prospective];\n      for(i = 0; i < prospectives.length; i++) {\n        if(overwrite) {\n          prospectives[i - 1] = prospectives[i];\n        }\n        if(prospectives[i] == prospective) {\n          overwrite = true;\n        }\n      }\n      delete(prospectives[prospectives.length-1]);\n      prospectives.length -= 1;\n    } else {\n      delete isKicked[prospective];\n      for(i = 0; i < kicked.length; i++) {\n        if(overwrite) {\n          kicked[i - 1] = kicked[i];\n        }\n        if(kicked[i] == prospective) {\n          overwrite = true;\n        }\n      }\n      delete(kicked[kicked.length-1]);\n      kicked.length -= 1;\n    }\n  }\n\n  //an existing singer can vote or revote on an existing proposal\n  function vote(address prospective, bool value) public onlySigners() {\n    require(isProspective[prospective] || isKicked[prospective]);\n\n    //if the signer voted yes before and votes no now remove their old vote\n    if(voteInfo[prospective][msg.sender] && !value) {\n      yayVotes[prospective] -= 1;\n    }\n    //if the signer is voting yes and hadn't before add a yay vote\n    if(!voteInfo[prospective][msg.sender] && value) {\n      yayVotes[prospective] += 1;\n    }\n    voteInfo[prospective][msg.sender] = value;\n    if(!hasVoted[prospective][msg.sender]) {\n      voters[prospective].push(msg.sender);\n    }\n    hasVoted[prospective][msg.sender] = true;\n\n    //if this was a no vote it won't trigger anything and no further processing is needed\n    if(!value) return;\n    //if there aren't enought votes for a majority nothing more to do\n    if(yayVotes[prospective] < (signers.length+1)/2) return;\n\n    if(isKicked[prospective]) {\n      bool overwrite = false;\n      for(uint i = 0; i < kicked.length; i++) {\n        if(overwrite) {\n          signers[i - 1] = signers[i];\n        }\n        if(signers[i] == prospective) {\n          overwrite = true;\n        }\n      }\n      delete(signers[signers.length-1]);\n      signers.length -= 1;\n      isSigner[prospective] = false;\n      RemoveSigner(prospective);\n    } else {\n      signers.push(prospective);\n      isSigner[prospective] = true;\n      AddSigner(prospective);\n    }\n\n    clearVotes(prospective);\n  }\n\n  function getAgentByName(string name) public constant returns (address) {\n    return agentByName[name];\n  }\n\n  function getAgentName(address addr) public constant returns (string) {\n    return agentInfo[addr].name;\n  }\n\n  function getAgentContractAddr(address addr) public constant returns (address) {\n    return agentInfo[addr].contractAddr;\n  }\n\n  function getAgentHost(address addr) public constant returns (string) {\n    return agentInfo[addr].host;\n  }\n\n  function getNumSigners() public constant returns (uint) {\n    return signers.length;\n  }\n\n  function getSigner(uint idx) public constant returns (address) {\n    return signers[idx];\n  }\n\n  function getNumVoters(address prospective) public constant returns (uint) {\n    return voters[prospective].length;\n  }\n\n  function getVoter(address prospective, uint idx) public constant returns (address) {\n    return voters[prospective][idx];\n  }\n\n  function getVoteInfo(address prospective, address signer) public constant returns (bool) {\n    return voteInfo[prospective][signer];\n  }\n\n  function getNumYayVotes(address prospective) public constant returns (uint) {\n    return yayVotes[prospective];\n  }\n\n  function getNumProspectives() public constant returns (uint) {\n    return prospectives.length;\n  }\n\n  function getProspective(uint idx) public constant returns (address) {\n    return prospectives[idx];\n  }\n\n  function getNumKicked() public constant returns (uint) {\n    return kicked.length;\n  }\n\n  function getKicked(uint idx) public constant returns (address) {\n    return kicked[idx];\n  }\n\n  function getProposer(address prospective) public constant returns (address) {\n    return proposer[prospective];\n  }\n}\n",
  "sourcePath": "/home/firescar96/Documents/MIT/MEng/research/medrec/SmartContracts/contracts/AgentRegistry.sol",
  "compiler": {
    "name": "solc",
    "version": "0.4.19+commit.c4cbbb05.Emscripten.clang"
  },
  "schemaVersion": "2.0.0",
  "updatedAt": "2018-05-08T20:46:06.219Z"
}