{
  "contractName": "DeadmanSwitch",
  "abi": [
    {
      "constant": true,
      "inputs": [],
      "name": "lastTouch",
      "outputs": [
        {
          "name": "",
          "type": "uint256"
        }
      ],
      "payable": false,
      "stateMutability": "view",
      "type": "function"
    },
    {
      "constant": true,
      "inputs": [],
      "name": "timeout",
      "outputs": [
        {
          "name": "",
          "type": "uint256"
        }
      ],
      "payable": false,
      "stateMutability": "view",
      "type": "function"
    },
    {
      "constant": true,
      "inputs": [
        {
          "name": "",
          "type": "uint256"
        }
      ],
      "name": "relationships",
      "outputs": [
        {
          "name": "",
          "type": "address"
        }
      ],
      "payable": false,
      "stateMutability": "view",
      "type": "function"
    },
    {
      "constant": true,
      "inputs": [],
      "name": "agent",
      "outputs": [
        {
          "name": "",
          "type": "address"
        }
      ],
      "payable": false,
      "stateMutability": "view",
      "type": "function"
    },
    {
      "inputs": [],
      "payable": false,
      "stateMutability": "nonpayable",
      "type": "constructor"
    },
    {
      "constant": false,
      "inputs": [
        {
          "name": "addr",
          "type": "address"
        }
      ],
      "name": "setAgent",
      "outputs": [],
      "payable": false,
      "stateMutability": "nonpayable",
      "type": "function"
    },
    {
      "constant": false,
      "inputs": [
        {
          "name": "r",
          "type": "address"
        }
      ],
      "name": "addRelationship",
      "outputs": [],
      "payable": false,
      "stateMutability": "nonpayable",
      "type": "function"
    },
    {
      "constant": true,
      "inputs": [],
      "name": "getNumRelationships",
      "outputs": [
        {
          "name": "",
          "type": "uint256"
        }
      ],
      "payable": false,
      "stateMutability": "view",
      "type": "function"
    },
    {
      "constant": false,
      "inputs": [],
      "name": "touch",
      "outputs": [],
      "payable": false,
      "stateMutability": "nonpayable",
      "type": "function"
    },
    {
      "constant": false,
      "inputs": [
        {
          "name": "_timeout",
          "type": "uint256"
        }
      ],
      "name": "setTimeout",
      "outputs": [],
      "payable": false,
      "stateMutability": "nonpayable",
      "type": "function"
    },
    {
      "constant": true,
      "inputs": [],
      "name": "isAlive",
      "outputs": [
        {
          "name": "",
          "type": "bool"
        }
      ],
      "payable": false,
      "stateMutability": "view",
      "type": "function"
    }
  ],
  "bytecode": "0x6060604052341561000f57600080fd5b336000806101000a81548173ffffffffffffffffffffffffffffffffffffffff021916908373ffffffffffffffffffffffffffffffffffffffff1602179055506105e68061005e6000396000f3006060604052600436106100a4576000357c0100000000000000000000000000000000000000000000000000000000900463ffffffff16806333403002146100a95780634136aa35146100d257806370dea79a146100ff57806379bda9371461012857806394aa271814610161578063a55526db146101c4578063bcf685ed146101d9578063c58a34cc14610212578063e968177e14610235578063f5ff5c761461025e575b600080fd5b34156100b457600080fd5b6100bc6102b3565b6040518082815260200191505060405180910390f35b34156100dd57600080fd5b6100e56102b9565b604051808215151515815260200191505060405180910390f35b341561010a57600080fd5b6101126102ca565b6040518082815260200191505060405180910390f35b341561013357600080fd5b61015f600480803573ffffffffffffffffffffffffffffffffffffffff169060200190919050506102d0565b005b341561016c57600080fd5b6101826004808035906020019091905050610391565b604051808273ffffffffffffffffffffffffffffffffffffffff1673ffffffffffffffffffffffffffffffffffffffff16815260200191505060405180910390f35b34156101cf57600080fd5b6101d76103d0565b005b34156101e457600080fd5b610210600480803573ffffffffffffffffffffffffffffffffffffffff16906020019091905050610434565b005b341561021d57600080fd5b61023360048080359060200190919050506104d2565b005b341561024057600080fd5b610248610537565b6040518082815260200191505060405180910390f35b341561026957600080fd5b610271610544565b604051808273ffffffffffffffffffffffffffffffffffffffff1673ffffffffffffffffffffffffffffffffffffffff16815260200191505060405180910390f35b60025481565b600060035460025401421115905090565b60035481565b6000809054906101000a900473ffffffffffffffffffffffffffffffffffffffff1673ffffffffffffffffffffffffffffffffffffffff163373ffffffffffffffffffffffffffffffffffffffff1614151561032b57600080fd5b6001805480600101828161033f9190610569565b9160005260206000209001600083909190916101000a81548173ffffffffffffffffffffffffffffffffffffffff021916908373ffffffffffffffffffffffffffffffffffffffff1602179055505050565b6001818154811015156103a057fe5b90600052602060002090016000915054906101000a900473ffffffffffffffffffffffffffffffffffffffff1681565b6000809054906101000a900473ffffffffffffffffffffffffffffffffffffffff1673ffffffffffffffffffffffffffffffffffffffff163373ffffffffffffffffffffffffffffffffffffffff1614151561042b57600080fd5b42600281905550565b6000809054906101000a900473ffffffffffffffffffffffffffffffffffffffff1673ffffffffffffffffffffffffffffffffffffffff163373ffffffffffffffffffffffffffffffffffffffff1614151561048f57600080fd5b806000806101000a81548173ffffffffffffffffffffffffffffffffffffffff021916908373ffffffffffffffffffffffffffffffffffffffff16021790555050565b6000809054906101000a900473ffffffffffffffffffffffffffffffffffffffff1673ffffffffffffffffffffffffffffffffffffffff163373ffffffffffffffffffffffffffffffffffffffff1614151561052d57600080fd5b8060038190555050565b6000600180549050905090565b6000809054906101000a900473ffffffffffffffffffffffffffffffffffffffff1681565b8154818355818115116105905781836000526020600020918201910161058f9190610595565b5b505050565b6105b791905b808211156105b357600081600090555060010161059b565b5090565b905600a165627a7a72305820817a1962cb2f39cd66933c251e20cc797f2d1c102926a0f654e232a7ceeccee60029",
  "source": "pragma solidity ^0.4.15;\n\ncontract DeadmanSwitch {\n  address public agent;\n  address[] public relationships; //list of Relationship contract addresses\n  uint public lastTouch; // gets updated whenever the owner touches this switch\n  uint public timeout; //minimum time in miliseconds between touches\n\n  modifier isOwner() {\n    if(msg.sender != agent) revert();\n    _;\n  }\n\n  function DeadmanSwitch() public {\n    agent = msg.sender;\n  }\n\n  function setAgent(address addr) public isOwner {\n    agent = addr;\n  }\n\n  function addRelationship(address r) public isOwner {\n    relationships.push(r);\n  }\n\n  function getNumRelationships() public constant returns (uint) {\n    return relationships.length;\n  }\n\n  function touch() public isOwner {\n      lastTouch = now;\n  }\n\n  function setTimeout(uint _timeout) public isOwner {\n      timeout = _timeout;\n  }\n\n  function isAlive() public constant returns (bool){\n      return now <= lastTouch + timeout;\n  }\n}\n",
  "sourcePath": "/home/firescar96/Documents/MIT/MEng/research/medrec/SmartContracts/contracts/DeadmanSwitch.sol",
  "compiler": {
    "name": "solc",
    "version": "0.4.19+commit.c4cbbb05.Emscripten.clang"
  },
  "schemaVersion": "2.0.0",
  "updatedAt": "2018-06-05T05:32:07.939Z"
}