{
  "contractName": "Relationship",
  "abi": [
    {
      "constant": true,
      "inputs": [],
      "name": "providerName",
      "outputs": [
        {
          "name": "",
          "type": "string"
        }
      ],
      "payable": false,
      "stateMutability": "view",
      "type": "function"
    },
    {
      "constant": true,
      "inputs": [],
      "name": "provider",
      "outputs": [
        {
          "name": "",
          "type": "address"
        }
      ],
      "payable": false,
      "stateMutability": "view",
      "type": "function"
    },
    {
      "constant": true,
      "inputs": [],
      "name": "patron",
      "outputs": [
        {
          "name": "",
          "type": "address"
        }
      ],
      "payable": false,
      "stateMutability": "view",
      "type": "function"
    },
    {
      "constant": true,
      "inputs": [],
      "name": "providerAddr",
      "outputs": [
        {
          "name": "",
          "type": "string"
        }
      ],
      "payable": false,
      "stateMutability": "view",
      "type": "function"
    },
    {
      "constant": true,
      "inputs": [
        {
          "name": "",
          "type": "address"
        }
      ],
      "name": "isViewer",
      "outputs": [
        {
          "name": "",
          "type": "bool"
        }
      ],
      "payable": false,
      "stateMutability": "view",
      "type": "function"
    },
    {
      "inputs": [
        {
          "name": "_provider",
          "type": "address"
        }
      ],
      "payable": false,
      "stateMutability": "nonpayable",
      "type": "constructor"
    },
    {
      "constant": false,
      "inputs": [
        {
          "name": "addr",
          "type": "string"
        }
      ],
      "name": "setProviderAddress",
      "outputs": [],
      "payable": false,
      "stateMutability": "nonpayable",
      "type": "function"
    },
    {
      "constant": false,
      "inputs": [
        {
          "name": "name",
          "type": "string"
        }
      ],
      "name": "setProviderName",
      "outputs": [],
      "payable": false,
      "stateMutability": "nonpayable",
      "type": "function"
    },
    {
      "constant": false,
      "inputs": [],
      "name": "addViewerGroup",
      "outputs": [],
      "payable": false,
      "stateMutability": "nonpayable",
      "type": "function"
    },
    {
      "constant": false,
      "inputs": [
        {
          "name": "viewerGroup",
          "type": "uint256"
        }
      ],
      "name": "removeViewerGroup",
      "outputs": [],
      "payable": false,
      "stateMutability": "nonpayable",
      "type": "function"
    },
    {
      "constant": false,
      "inputs": [
        {
          "name": "name",
          "type": "string"
        },
        {
          "name": "viewerGroup",
          "type": "uint256"
        },
        {
          "name": "viewer",
          "type": "address"
        },
        {
          "name": "provAddr",
          "type": "string"
        }
      ],
      "name": "addViewer",
      "outputs": [],
      "payable": false,
      "stateMutability": "nonpayable",
      "type": "function"
    },
    {
      "constant": false,
      "inputs": [
        {
          "name": "viewerGroup",
          "type": "uint256"
        },
        {
          "name": "viewer",
          "type": "address"
        }
      ],
      "name": "removeViewer",
      "outputs": [],
      "payable": false,
      "stateMutability": "nonpayable",
      "type": "function"
    },
    {
      "constant": true,
      "inputs": [],
      "name": "getNumViewerGroups",
      "outputs": [
        {
          "name": "",
          "type": "uint256"
        }
      ],
      "payable": false,
      "stateMutability": "view",
      "type": "function"
    },
    {
      "constant": true,
      "inputs": [
        {
          "name": "group",
          "type": "uint256"
        }
      ],
      "name": "getNumViewers",
      "outputs": [
        {
          "name": "",
          "type": "uint256"
        }
      ],
      "payable": false,
      "stateMutability": "view",
      "type": "function"
    },
    {
      "constant": true,
      "inputs": [
        {
          "name": "group",
          "type": "uint256"
        },
        {
          "name": "index",
          "type": "uint256"
        }
      ],
      "name": "getViewer",
      "outputs": [
        {
          "name": "",
          "type": "address"
        }
      ],
      "payable": false,
      "stateMutability": "view",
      "type": "function"
    },
    {
      "constant": true,
      "inputs": [
        {
          "name": "name",
          "type": "string"
        }
      ],
      "name": "getViewerByName",
      "outputs": [
        {
          "name": "",
          "type": "address"
        }
      ],
      "payable": false,
      "stateMutability": "view",
      "type": "function"
    },
    {
      "constant": true,
      "inputs": [
        {
          "name": "addr",
          "type": "address"
        }
      ],
      "name": "getViewerName",
      "outputs": [
        {
          "name": "",
          "type": "string"
        }
      ],
      "payable": false,
      "stateMutability": "view",
      "type": "function"
    },
    {
      "constant": false,
      "inputs": [],
      "name": "terminate",
      "outputs": [],
      "payable": false,
      "stateMutability": "nonpayable",
      "type": "function"
    }
  ],
  "bytecode": "0x6060604052341561000f57600080fd5b60405160208061180383398101604052808051906020019091905050336000806101000a81548173ffffffffffffffffffffffffffffffffffffffff021916908373ffffffffffffffffffffffffffffffffffffffff16021790555080600160006101000a81548173ffffffffffffffffffffffffffffffffffffffff021916908373ffffffffffffffffffffffffffffffffffffffff16021790555050611747806100bc6000396000f3006060604052600436106100f0576000357c0100000000000000000000000000000000000000000000000000000000900463ffffffff168062dad7d4146100f5578063019d8d5f14610183578063085d48831461024b5780630ba32b27146102a05780630c08bf88146102f5578063231505bd1461030a5780632a7a832d146103985780632bba6fb7146103cf5780632f35de6114610420578063322eb71d146104495780633d2c8861146104fb578063444ee902146105585780637e26ea63146105b5578063a9ef019014610621578063bc1d708714610636578063d97034d5146106d3578063e267eea0146106f6575b600080fd5b341561010057600080fd5b610108610738565b6040518080602001828103825283818151815260200191508051906020019080838360005b8381101561014857808201518184015260208101905061012d565b50505050905090810190601f1680156101755780820380516001836020036101000a031916815260200191505b509250505060405180910390f35b341561018e57600080fd5b610249600480803590602001908201803590602001908080601f0160208091040260200160405190810160405280939291908181526020018383808284378201915050505050509190803590602001909190803573ffffffffffffffffffffffffffffffffffffffff1690602001909190803590602001908201803590602001908080601f016020809104026020016040519081016040528093929190818152602001838380828437820191505050505050919050506107d6565b005b341561025657600080fd5b61025e6109f4565b604051808273ffffffffffffffffffffffffffffffffffffffff1673ffffffffffffffffffffffffffffffffffffffff16815260200191505060405180910390f35b34156102ab57600080fd5b6102b3610a1a565b604051808273ffffffffffffffffffffffffffffffffffffffff1673ffffffffffffffffffffffffffffffffffffffff16815260200191505060405180910390f35b341561030057600080fd5b610308610a3f565b005b341561031557600080fd5b61031d610b2e565b6040518080602001828103825283818151815260200191508051906020019080838360005b8381101561035d578082015181840152602081019050610342565b50505050905090810190601f16801561038a5780820380516001836020036101000a031916815260200191505b509250505060405180910390f35b34156103a357600080fd5b6103b96004808035906020019091905050610bcc565b6040518082815260200191505060405180910390f35b34156103da57600080fd5b610406600480803573ffffffffffffffffffffffffffffffffffffffff16906020019091905050610bf3565b604051808215151515815260200191505060405180910390f35b341561042b57600080fd5b610433610c13565b6040518082815260200191505060405180910390f35b341561045457600080fd5b610480600480803573ffffffffffffffffffffffffffffffffffffffff16906020019091905050610c20565b6040518080602001828103825283818151815260200191508051906020019080838360005b838110156104c05780820151818401526020810190506104a5565b50505050905090810190601f1680156104ed5780820380516001836020036101000a031916815260200191505b509250505060405180910390f35b341561050657600080fd5b610556600480803590602001908201803590602001908080601f01602080910402602001604051908101604052809392919081815260200183838082843782019150505050505091905050610d0a565b005b341561056357600080fd5b6105b3600480803590602001908201803590602001908080601f01602080910402602001604051908101604052809392919081815260200183838082843782019150505050505091905050610d24565b005b34156105c057600080fd5b6105df6004808035906020019091908035906020019091905050610d3e565b604051808273ffffffffffffffffffffffffffffffffffffffff1673ffffffffffffffffffffffffffffffffffffffff16815260200191505060405180910390f35b341561062c57600080fd5b610634610d9b565b005b341561064157600080fd5b610691600480803590602001908201803590602001908080601f01602080910402602001604051908101604052809392919081815260200183838082843782019150505050505091905050610e11565b604051808273ffffffffffffffffffffffffffffffffffffffff1673ffffffffffffffffffffffffffffffffffffffff16815260200191505060405180910390f35b34156106de57600080fd5b6106f46004808035906020019091905050610ea6565b005b341561070157600080fd5b610736600480803590602001909190803573ffffffffffffffffffffffffffffffffffffffff1690602001909190505061109c565b005b60038054600181600116156101000203166002900480601f0160208091040260200160405190810160405280929190818152602001828054600181600116156101000203166002900480156107ce5780601f106107a3576101008083540402835291602001916107ce565b820191906000526020600020905b8154815290600101906020018083116107b157829003601f168201915b505050505081565b6000809054906101000a900473ffffffffffffffffffffffffffffffffffffffff1673ffffffffffffffffffffffffffffffffffffffff163373ffffffffffffffffffffffffffffffffffffffff1614151561083157600080fd5b600560008373ffffffffffffffffffffffffffffffffffffffff1673ffffffffffffffffffffffffffffffffffffffff16815260200190815260200160002060009054906101000a900460ff1615151561088a57600080fd5b6001600560008473ffffffffffffffffffffffffffffffffffffffff1673ffffffffffffffffffffffffffffffffffffffff16815260200190815260200160002060006101000a81548160ff0219169083151502179055506004838154811015156108f157fe5b9060005260206000209001805480600101828161090e9190611434565b9160005260206000209001600084909190916101000a81548173ffffffffffffffffffffffffffffffffffffffff021916908373ffffffffffffffffffffffffffffffffffffffff16021790555050604080519081016040528085815260200182815250600660008473ffffffffffffffffffffffffffffffffffffffff1673ffffffffffffffffffffffffffffffffffffffff16815260200190815260200160002060008201518160000190805190602001906109cd929190611460565b5060208201518160010190805190602001906109ea929190611460565b5090505050505050565b600160009054906101000a900473ffffffffffffffffffffffffffffffffffffffff1681565b6000809054906101000a900473ffffffffffffffffffffffffffffffffffffffff1681565b6000809054906101000a900473ffffffffffffffffffffffffffffffffffffffff1673ffffffffffffffffffffffffffffffffffffffff163373ffffffffffffffffffffffffffffffffffffffff1614158015610aea5750600160009054906101000a900473ffffffffffffffffffffffffffffffffffffffff1673ffffffffffffffffffffffffffffffffffffffff163373ffffffffffffffffffffffffffffffffffffffff1614155b15610af457600080fd5b6000809054906101000a900473ffffffffffffffffffffffffffffffffffffffff1673ffffffffffffffffffffffffffffffffffffffff16ff5b60028054600181600116156101000203166002900480601f016020809104026020016040519081016040528092919081815260200182805460018160011615610100020316600290048015610bc45780601f10610b9957610100808354040283529160200191610bc4565b820191906000526020600020905b815481529060010190602001808311610ba757829003601f168201915b505050505081565b6000600482815481101515610bdd57fe5b9060005260206000209001805490509050919050565b60056020528060005260406000206000915054906101000a900460ff1681565b6000600480549050905090565b610c286114e0565b600660008373ffffffffffffffffffffffffffffffffffffffff1673ffffffffffffffffffffffffffffffffffffffff1681526020019081526020016000206000018054600181600116156101000203166002900480601f016020809104026020016040519081016040528092919081815260200182805460018160011615610100020316600290048015610cfe5780601f10610cd357610100808354040283529160200191610cfe565b820191906000526020600020905b815481529060010190602001808311610ce157829003601f168201915b50505050509050919050565b8060029080519060200190610d209291906114f4565b5050565b8060039080519060200190610d3a9291906114f4565b5050565b6000600483815481101515610d4f57fe5b906000526020600020900182815481101515610d6757fe5b906000526020600020900160009054906101000a900473ffffffffffffffffffffffffffffffffffffffff16905092915050565b6000809054906101000a900473ffffffffffffffffffffffffffffffffffffffff1673ffffffffffffffffffffffffffffffffffffffff163373ffffffffffffffffffffffffffffffffffffffff16141515610df657600080fd5b6001600481818054905001915081610e0e9190611574565b50565b60006007826040518082805190602001908083835b602083101515610e4b5780518252602082019150602081019050602083039250610e26565b6001836020036101000a038019825116818451168082178552505050505050905001915050908152602001604051809103902060009054906101000a900473ffffffffffffffffffffffffffffffffffffffff169050919050565b60008060008060009054906101000a900473ffffffffffffffffffffffffffffffffffffffff1673ffffffffffffffffffffffffffffffffffffffff163373ffffffffffffffffffffffffffffffffffffffff16141515610f0657600080fd5b600484815481101515610f1557fe5b9060005260206000209001805490509250600091505b82821015610fea57600060056000600487815481101515610f4857fe5b906000526020600020900185815481101515610f6057fe5b906000526020600020900160009054906101000a900473ffffffffffffffffffffffffffffffffffffffff1673ffffffffffffffffffffffffffffffffffffffff1673ffffffffffffffffffffffffffffffffffffffff16815260200190815260200160002060006101000a81548160ff0219169083151502179055508180600101925050610f2b565b60048054905090506001840191505b808210156110545760048281548110151561101057fe5b906000526020600020900160046001840381548110151561102d57fe5b90600052602060002090019080546110469291906115a0565b508180600101925050610ff9565b60046001820381548110151561106657fe5b9060005260206000209001600061107d91906115f2565b60016004818180549050039150816110959190611574565b5050505050565b60008060008060009054906101000a900473ffffffffffffffffffffffffffffffffffffffff1673ffffffffffffffffffffffffffffffffffffffff163373ffffffffffffffffffffffffffffffffffffffff161415156110fc57600080fd5b600560008573ffffffffffffffffffffffffffffffffffffffff1673ffffffffffffffffffffffffffffffffffffffff16815260200190815260200160002060009054906101000a900460ff16151561115457600080fd5b6000600560008673ffffffffffffffffffffffffffffffffffffffff1673ffffffffffffffffffffffffffffffffffffffff16815260200190815260200160002060006101000a81548160ff0219169083151502179055506004858154811015156111bb57fe5b906000526020600020900180549050925060009150600090505b828110156113425781156112aa576004858154811015156111f257fe5b90600052602060002090018181548110151561120a57fe5b906000526020600020900160009054906101000a900473ffffffffffffffffffffffffffffffffffffffff1660048681548110151561124557fe5b90600052602060002090016001830381548110151561126057fe5b906000526020600020900160006101000a81548173ffffffffffffffffffffffffffffffffffffffff021916908373ffffffffffffffffffffffffffffffffffffffff1602179055505b8373ffffffffffffffffffffffffffffffffffffffff166004868154811015156112d057fe5b9060005260206000209001828154811015156112e857fe5b906000526020600020900160009054906101000a900473ffffffffffffffffffffffffffffffffffffffff1673ffffffffffffffffffffffffffffffffffffffff16141561133557600191505b80806001019150506111d5565b60048581548110151561135157fe5b90600052602060002090016001840381548110151561136c57fe5b906000526020600020900160006101000a81549073ffffffffffffffffffffffffffffffffffffffff021916905560016004868154811015156113ab57fe5b9060005260206000209001818180549050039150816113ca9190611613565b50600660008573ffffffffffffffffffffffffffffffffffffffff1673ffffffffffffffffffffffffffffffffffffffff1681526020019081526020016000206000808201600061141b919061163f565b60018201600061142b919061163f565b50505050505050565b81548183558181151161145b5781836000526020600020918201910161145a9190611687565b5b505050565b828054600181600116156101000203166002900490600052602060002090601f016020900481019282601f106114a157805160ff19168380011785556114cf565b828001600101855582156114cf579182015b828111156114ce5782518255916020019190600101906114b3565b5b5090506114dc9190611687565b5090565b602060405190810160405280600081525090565b828054600181600116156101000203166002900490600052602060002090601f016020900481019282601f1061153557805160ff1916838001178555611563565b82800160010185558215611563579182015b82811115611562578251825591602001919060010190611547565b5b5090506115709190611687565b5090565b81548183558181151161159b5781836000526020600020918201910161159a91906116ac565b5b505050565b8280548282559060005260206000209081019282156115e15760005260206000209182015b828111156115e05782548255916001019190600101906115c5565b5b5090506115ee91906116d8565b5090565b50805460008255906000526020600020908101906116109190611687565b50565b81548183558181151161163a578183600052602060002091820191016116399190611687565b5b505050565b50805460018160011615610100020316600290046000825580601f106116655750611684565b601f0160209004906000526020600020908101906116839190611687565b5b50565b6116a991905b808211156116a557600081600090555060010161168d565b5090565b90565b6116d591905b808211156116d157600081816116c891906115f2565b506001016116b2565b5090565b90565b61171891905b8082111561171457600081816101000a81549073ffffffffffffffffffffffffffffffffffffffff0219169055506001016116de565b5090565b905600a165627a7a72305820a34ca51e0ac59de90d62021072144138f449769bdf9a39349352b13de2961aec0029",
  "source": "pragma solidity ^0.4.18;\n\ncontract Relationship {\n    address public patron;\n    address public provider; // this is a unique address for the provider used only for this relationship\n    string public providerAddr; //encrypted provider address\n    string public providerName; //encrypted provider name\n\n    struct Viewer {\n        string name;\n        string providerAddr; //the real provider address encypted so only the viewer can read\n    }\n\n    address[][] viewerGroups;\n    mapping(address => bool) public isViewer;\n    mapping(address => Viewer) viewerInfo;\n    mapping(string => address) viewerByName;\n\n    uint256 constant UINT256_MAX = ~uint256(0);\n\n    modifier isPatron() {\n        if(msg.sender != patron) revert();\n        _;\n    }\n\n    function Relationship(address _provider) public {\n        patron = msg.sender;\n        provider = _provider;\n    }\n\n/****These functions should be left commented out until a use case for them arises\n  function setPatron(address addr) isPatron {\n    patron = addr;\n  }\n  function setProvider(address addr) isPatron {\n    provider = addr;\n  }\n******************/\n\nfunction setProviderAddress(string addr) public {\n    providerAddr = addr;\n}\n\nfunction setProviderName(string name) public {\n  providerName = name;\n}\n\nfunction addViewerGroup() public isPatron {\n    viewerGroups.length += 1;\n}\n\nfunction removeViewerGroup(uint viewerGroup) public isPatron {\n    uint numViewers = viewerGroups[viewerGroup].length;\n    uint i;\n    for(i = 0; i < numViewers; i++) {\n        isViewer[viewerGroups[viewerGroup][i]] = false;\n    }\n\n    uint numGroups = viewerGroups.length;\n    for(i = viewerGroup+1; i < numGroups; i++) {\n        viewerGroups[i - 1] = viewerGroups[i];\n    }\n    delete(viewerGroups[numGroups-1]);\n    viewerGroups.length -= 1;\n}\n\nfunction addViewer(string name, uint viewerGroup, address viewer, string provAddr) public isPatron {\n    require(!isViewer[viewer]);\n\n    isViewer[viewer] = true;\n    viewerGroups[viewerGroup].push(viewer);\n    viewerInfo[viewer] = Viewer(name, provAddr);\n}\n\nfunction removeViewer(uint viewerGroup, address viewer) public isPatron {\n    require(isViewer[viewer]);\n\n    isViewer[viewer] = false;\n    uint numViewers = viewerGroups[viewerGroup].length;\n    bool overwrite = false;\n    for(uint i = 0; i < numViewers; i++) {\n        if(overwrite) {\n            viewerGroups[viewerGroup][i - 1] = viewerGroups[viewerGroup][i];\n        }\n        if(viewerGroups[viewerGroup][i] == viewer) {\n            overwrite = true;\n        }\n    }\n    delete(viewerGroups[viewerGroup][numViewers-1]);\n    viewerGroups[viewerGroup].length -= 1;\n    delete(viewerInfo[viewer]);\n}\n\nfunction getNumViewerGroups() public constant returns(uint) {\n    return viewerGroups.length;\n}\n\nfunction getNumViewers(uint group) public constant returns(uint) {\n    return viewerGroups[group].length;\n}\n\nfunction getViewer(uint group, uint index) public constant returns(address) {\n  return viewerGroups[group][index];\n}\n\nfunction getViewerByName(string name) public constant returns(address) {\n    return viewerByName[name];\n}\n\nfunction getViewerName(address addr) public constant returns(string) {\n    return viewerInfo[addr].name;\n}\n\nfunction terminate() public {\n    if(msg.sender != patron && msg.sender != provider) revert();\n    selfdestruct(patron);\n}\n}\n",
  "sourcePath": "/home/firescar96/Documents/MIT/MEng/research/medrec/SmartContracts/contracts/Relationship.sol",
  "compiler": {
    "name": "solc",
    "version": "0.4.19+commit.c4cbbb05.Emscripten.clang"
  },
  "schemaVersion": "2.0.0",
  "updatedAt": "2018-06-06T03:28:00.936Z"
}