{
  "contractName": "Relationship",
  "abi": [
    {
      "constant": true,
      "inputs": [],
      "name": "providerName",
      "outputs": [
        {
          "name": "",
          "type": "string"
        }
      ],
      "payable": false,
      "stateMutability": "view",
      "type": "function"
    },
    {
      "constant": true,
      "inputs": [],
      "name": "provider",
      "outputs": [
        {
          "name": "",
          "type": "address"
        }
      ],
      "payable": false,
      "stateMutability": "view",
      "type": "function"
    },
    {
      "constant": true,
      "inputs": [],
      "name": "patron",
      "outputs": [
        {
          "name": "",
          "type": "address"
        }
      ],
      "payable": false,
      "stateMutability": "view",
      "type": "function"
    },
    {
      "constant": true,
      "inputs": [
        {
          "name": "",
          "type": "address"
        }
      ],
      "name": "isViewer",
      "outputs": [
        {
          "name": "",
          "type": "bool"
        }
      ],
      "payable": false,
      "stateMutability": "view",
      "type": "function"
    },
    {
      "inputs": [
        {
          "name": "_provider",
          "type": "address"
        }
      ],
      "payable": false,
      "stateMutability": "nonpayable",
      "type": "constructor"
    },
    {
      "constant": false,
      "inputs": [
        {
          "name": "name",
          "type": "string"
        }
      ],
      "name": "setProviderName",
      "outputs": [],
      "payable": false,
      "stateMutability": "nonpayable",
      "type": "function"
    },
    {
      "constant": false,
      "inputs": [],
      "name": "addViewerGroup",
      "outputs": [],
      "payable": false,
      "stateMutability": "nonpayable",
      "type": "function"
    },
    {
      "constant": false,
      "inputs": [
        {
          "name": "viewerGroup",
          "type": "uint256"
        }
      ],
      "name": "removeViewerGroup",
      "outputs": [],
      "payable": false,
      "stateMutability": "nonpayable",
      "type": "function"
    },
    {
      "constant": false,
      "inputs": [
        {
          "name": "name",
          "type": "string"
        },
        {
          "name": "viewerGroup",
          "type": "uint256"
        },
        {
          "name": "viewer",
          "type": "address"
        }
      ],
      "name": "addViewer",
      "outputs": [],
      "payable": false,
      "stateMutability": "nonpayable",
      "type": "function"
    },
    {
      "constant": false,
      "inputs": [
        {
          "name": "viewerGroup",
          "type": "uint256"
        },
        {
          "name": "viewer",
          "type": "address"
        }
      ],
      "name": "removeViewer",
      "outputs": [],
      "payable": false,
      "stateMutability": "nonpayable",
      "type": "function"
    },
    {
      "constant": true,
      "inputs": [],
      "name": "getNumViewerGroups",
      "outputs": [
        {
          "name": "",
          "type": "uint256"
        }
      ],
      "payable": false,
      "stateMutability": "view",
      "type": "function"
    },
    {
      "constant": true,
      "inputs": [
        {
          "name": "group",
          "type": "uint256"
        }
      ],
      "name": "getNumViewers",
      "outputs": [
        {
          "name": "",
          "type": "uint256"
        }
      ],
      "payable": false,
      "stateMutability": "view",
      "type": "function"
    },
    {
      "constant": true,
      "inputs": [
        {
          "name": "group",
          "type": "uint256"
        },
        {
          "name": "index",
          "type": "uint256"
        }
      ],
      "name": "getViewer",
      "outputs": [
        {
          "name": "",
          "type": "address"
        }
      ],
      "payable": false,
      "stateMutability": "view",
      "type": "function"
    },
    {
      "constant": true,
      "inputs": [
        {
          "name": "name",
          "type": "string"
        }
      ],
      "name": "getViewerByName",
      "outputs": [
        {
          "name": "",
          "type": "address"
        }
      ],
      "payable": false,
      "stateMutability": "view",
      "type": "function"
    },
    {
      "constant": true,
      "inputs": [
        {
          "name": "addr",
          "type": "address"
        }
      ],
      "name": "getViewerName",
      "outputs": [
        {
          "name": "",
          "type": "string"
        }
      ],
      "payable": false,
      "stateMutability": "view",
      "type": "function"
    },
    {
      "constant": false,
      "inputs": [],
      "name": "terminate",
      "outputs": [],
      "payable": false,
      "stateMutability": "nonpayable",
      "type": "function"
    }
  ],
  "bytecode": "0x6060604052341561000f57600080fd5b60405160208061165d83398101604052808051906020019091905050336000806101000a81548173ffffffffffffffffffffffffffffffffffffffff021916908373ffffffffffffffffffffffffffffffffffffffff16021790555080600160006101000a81548173ffffffffffffffffffffffffffffffffffffffff021916908373ffffffffffffffffffffffffffffffffffffffff160217905550506115a1806100bc6000396000f3006060604052600436106100da576000357c0100000000000000000000000000000000000000000000000000000000900463ffffffff168062dad7d4146100df578063085d48831461016d5780630ba32b27146101c25780630c08bf88146102175780632a7a832d1461022c5780632bba6fb7146102635780632d705f37146102b45780632f35de6114610339578063322eb71d14610362578063444ee902146104145780637e26ea6314610471578063a9ef0190146104dd578063bc1d7087146104f2578063d97034d51461058f578063e267eea0146105b2575b600080fd5b34156100ea57600080fd5b6100f26105f4565b6040518080602001828103825283818151815260200191508051906020019080838360005b83811015610132578082015181840152602081019050610117565b50505050905090810190601f16801561015f5780820380516001836020036101000a031916815260200191505b509250505060405180910390f35b341561017857600080fd5b610180610692565b604051808273ffffffffffffffffffffffffffffffffffffffff1673ffffffffffffffffffffffffffffffffffffffff16815260200191505060405180910390f35b34156101cd57600080fd5b6101d56106b8565b604051808273ffffffffffffffffffffffffffffffffffffffff1673ffffffffffffffffffffffffffffffffffffffff16815260200191505060405180910390f35b341561022257600080fd5b61022a6106dd565b005b341561023757600080fd5b61024d60048080359060200190919050506107cc565b6040518082815260200191505060405180910390f35b341561026e57600080fd5b61029a600480803573ffffffffffffffffffffffffffffffffffffffff169060200190919050506107f3565b604051808215151515815260200191505060405180910390f35b34156102bf57600080fd5b610337600480803590602001908201803590602001908080601f0160208091040260200160405190810160405280939291908181526020018383808284378201915050505050509190803590602001909190803573ffffffffffffffffffffffffffffffffffffffff16906020019091905050610813565b005b341561034457600080fd5b61034c610a70565b6040518082815260200191505060405180910390f35b341561036d57600080fd5b610399600480803573ffffffffffffffffffffffffffffffffffffffff16906020019091905050610a7d565b6040518080602001828103825283818151815260200191508051906020019080838360005b838110156103d95780820151818401526020810190506103be565b50505050905090810190601f1680156104065780820380516001836020036101000a031916815260200191505b509250505060405180910390f35b341561041f57600080fd5b61046f600480803590602001908201803590602001908080601f01602080910402602001604051908101604052809392919081815260200183838082843782019150505050505091905050610b67565b005b341561047c57600080fd5b61049b6004808035906020019091908035906020019091905050610b81565b604051808273ffffffffffffffffffffffffffffffffffffffff1673ffffffffffffffffffffffffffffffffffffffff16815260200191505060405180910390f35b34156104e857600080fd5b6104f0610bde565b005b34156104fd57600080fd5b61054d600480803590602001908201803590602001908080601f01602080910402602001604051908101604052809392919081815260200183838082843782019150505050505091905050610c54565b604051808273ffffffffffffffffffffffffffffffffffffffff1673ffffffffffffffffffffffffffffffffffffffff16815260200191505060405180910390f35b341561059a57600080fd5b6105b06004808035906020019091905050610ce9565b005b34156105bd57600080fd5b6105f2600480803590602001909190803573ffffffffffffffffffffffffffffffffffffffff16906020019091905050610edf565b005b60028054600181600116156101000203166002900480601f01602080910402602001604051908101604052809291908181526020018280546001816001161561010002031660029004801561068a5780601f1061065f5761010080835404028352916020019161068a565b820191906000526020600020905b81548152906001019060200180831161066d57829003601f168201915b505050505081565b600160009054906101000a900473ffffffffffffffffffffffffffffffffffffffff1681565b6000809054906101000a900473ffffffffffffffffffffffffffffffffffffffff1681565b6000809054906101000a900473ffffffffffffffffffffffffffffffffffffffff1673ffffffffffffffffffffffffffffffffffffffff163373ffffffffffffffffffffffffffffffffffffffff16141580156107885750600160009054906101000a900473ffffffffffffffffffffffffffffffffffffffff1673ffffffffffffffffffffffffffffffffffffffff163373ffffffffffffffffffffffffffffffffffffffff1614155b1561079257600080fd5b6000809054906101000a900473ffffffffffffffffffffffffffffffffffffffff1673ffffffffffffffffffffffffffffffffffffffff16ff5b60006003828154811015156107dd57fe5b9060005260206000209001805490509050919050565b60046020528060005260406000206000915054906101000a900460ff1681565b6000809054906101000a900473ffffffffffffffffffffffffffffffffffffffff1673ffffffffffffffffffffffffffffffffffffffff163373ffffffffffffffffffffffffffffffffffffffff1614151561086e57600080fd5b600460008273ffffffffffffffffffffffffffffffffffffffff1673ffffffffffffffffffffffffffffffffffffffff16815260200190815260200160002060009054906101000a900460ff161515156108c757600080fd5b6001600460008373ffffffffffffffffffffffffffffffffffffffff1673ffffffffffffffffffffffffffffffffffffffff16815260200190815260200160002060006101000a81548160ff02191690831515021790555060038281548110151561092e57fe5b9060005260206000209001805480600101828161094b919061128e565b9160005260206000209001600083909190916101000a81548173ffffffffffffffffffffffffffffffffffffffff021916908373ffffffffffffffffffffffffffffffffffffffff1602179055505060408051908101604052808481526020018273ffffffffffffffffffffffffffffffffffffffff16815250600560008373ffffffffffffffffffffffffffffffffffffffff1673ffffffffffffffffffffffffffffffffffffffff1681526020019081526020016000206000820151816000019080519060200190610a209291906112ba565b5060208201518160010160006101000a81548173ffffffffffffffffffffffffffffffffffffffff021916908373ffffffffffffffffffffffffffffffffffffffff160217905550905050505050565b6000600380549050905090565b610a8561133a565b600560008373ffffffffffffffffffffffffffffffffffffffff1673ffffffffffffffffffffffffffffffffffffffff1681526020019081526020016000206000018054600181600116156101000203166002900480601f016020809104026020016040519081016040528092919081815260200182805460018160011615610100020316600290048015610b5b5780601f10610b3057610100808354040283529160200191610b5b565b820191906000526020600020905b815481529060010190602001808311610b3e57829003601f168201915b50505050509050919050565b8060029080519060200190610b7d92919061134e565b5050565b6000600383815481101515610b9257fe5b906000526020600020900182815481101515610baa57fe5b906000526020600020900160009054906101000a900473ffffffffffffffffffffffffffffffffffffffff16905092915050565b6000809054906101000a900473ffffffffffffffffffffffffffffffffffffffff1673ffffffffffffffffffffffffffffffffffffffff163373ffffffffffffffffffffffffffffffffffffffff16141515610c3957600080fd5b6001600381818054905001915081610c5191906113ce565b50565b60006006826040518082805190602001908083835b602083101515610c8e5780518252602082019150602081019050602083039250610c69565b6001836020036101000a038019825116818451168082178552505050505050905001915050908152602001604051809103902060009054906101000a900473ffffffffffffffffffffffffffffffffffffffff169050919050565b60008060008060009054906101000a900473ffffffffffffffffffffffffffffffffffffffff1673ffffffffffffffffffffffffffffffffffffffff163373ffffffffffffffffffffffffffffffffffffffff16141515610d4957600080fd5b600384815481101515610d5857fe5b9060005260206000209001805490509250600091505b82821015610e2d57600060046000600387815481101515610d8b57fe5b906000526020600020900185815481101515610da357fe5b906000526020600020900160009054906101000a900473ffffffffffffffffffffffffffffffffffffffff1673ffffffffffffffffffffffffffffffffffffffff1673ffffffffffffffffffffffffffffffffffffffff16815260200190815260200160002060006101000a81548160ff0219169083151502179055508180600101925050610d6e565b60038054905090506001840191505b80821015610e9757600382815481101515610e5357fe5b9060005260206000209001600360018403815481101515610e7057fe5b9060005260206000209001908054610e899291906113fa565b508180600101925050610e3c565b600360018203815481101515610ea957fe5b90600052602060002090016000610ec0919061144c565b6001600381818054905003915081610ed891906113ce565b5050505050565b60008060008060009054906101000a900473ffffffffffffffffffffffffffffffffffffffff1673ffffffffffffffffffffffffffffffffffffffff163373ffffffffffffffffffffffffffffffffffffffff16141515610f3f57600080fd5b600460008573ffffffffffffffffffffffffffffffffffffffff1673ffffffffffffffffffffffffffffffffffffffff16815260200190815260200160002060009054906101000a900460ff161515610f9757600080fd5b6000600460008673ffffffffffffffffffffffffffffffffffffffff1673ffffffffffffffffffffffffffffffffffffffff16815260200190815260200160002060006101000a81548160ff021916908315150217905550600385815481101515610ffe57fe5b906000526020600020900180549050925060009150600090505b828110156111855781156110ed5760038581548110151561103557fe5b90600052602060002090018181548110151561104d57fe5b906000526020600020900160009054906101000a900473ffffffffffffffffffffffffffffffffffffffff1660038681548110151561108857fe5b9060005260206000209001600183038154811015156110a357fe5b906000526020600020900160006101000a81548173ffffffffffffffffffffffffffffffffffffffff021916908373ffffffffffffffffffffffffffffffffffffffff1602179055505b8373ffffffffffffffffffffffffffffffffffffffff1660038681548110151561111357fe5b90600052602060002090018281548110151561112b57fe5b906000526020600020900160009054906101000a900473ffffffffffffffffffffffffffffffffffffffff1673ffffffffffffffffffffffffffffffffffffffff16141561117857600191505b8080600101915050611018565b60038581548110151561119457fe5b9060005260206000209001600184038154811015156111af57fe5b906000526020600020900160006101000a81549073ffffffffffffffffffffffffffffffffffffffff021916905560016003868154811015156111ee57fe5b90600052602060002090018181805490500391508161120d919061146d565b50600560008573ffffffffffffffffffffffffffffffffffffffff1673ffffffffffffffffffffffffffffffffffffffff1681526020019081526020016000206000808201600061125e9190611499565b6001820160006101000a81549073ffffffffffffffffffffffffffffffffffffffff021916905550505050505050565b8154818355818115116112b5578183600052602060002091820191016112b491906114e1565b5b505050565b828054600181600116156101000203166002900490600052602060002090601f016020900481019282601f106112fb57805160ff1916838001178555611329565b82800160010185558215611329579182015b8281111561132857825182559160200191906001019061130d565b5b50905061133691906114e1565b5090565b602060405190810160405280600081525090565b828054600181600116156101000203166002900490600052602060002090601f016020900481019282601f1061138f57805160ff19168380011785556113bd565b828001600101855582156113bd579182015b828111156113bc5782518255916020019190600101906113a1565b5b5090506113ca91906114e1565b5090565b8154818355818115116113f5578183600052602060002091820191016113f49190611506565b5b505050565b82805482825590600052602060002090810192821561143b5760005260206000209182015b8281111561143a57825482559160010191906001019061141f565b5b5090506114489190611532565b5090565b508054600082559060005260206000209081019061146a91906114e1565b50565b8154818355818115116114945781836000526020600020918201910161149391906114e1565b5b505050565b50805460018160011615610100020316600290046000825580601f106114bf57506114de565b601f0160209004906000526020600020908101906114dd91906114e1565b5b50565b61150391905b808211156114ff5760008160009055506001016114e7565b5090565b90565b61152f91905b8082111561152b5760008181611522919061144c565b5060010161150c565b5090565b90565b61157291905b8082111561156e57600081816101000a81549073ffffffffffffffffffffffffffffffffffffffff021916905550600101611538565b5090565b905600a165627a7a72305820be8d9b2fccc76f0c178fd2fb7137f3bfddb256e1c9b9858109523ed8ad90636f0029",
  "source": "pragma solidity ^0.4.18;\n\ncontract Relationship {\n    address public patron;\n    address public provider;\n    string public providerName;\n\n    struct Viewer {\n        string name;\n        address addr;\n    }\n\n    address[][] viewerGroups;\n    mapping(address => bool) public isViewer;\n    mapping(address => Viewer) viewerInfo;\n    mapping(string => address) viewerByName;\n\n    uint256 constant UINT256_MAX = ~uint256(0);\n\n    modifier isPatron() {\n        if(msg.sender != patron) revert();\n        _;\n    }\n\n    function Relationship(address _provider) public {\n        patron = msg.sender;\n        provider = _provider;\n    }\n\n    /****These functions should be left commented out until a use case for them arises\n    function setPatron(address addr) isPatron {\n    patron = addr;\n}\nfunction setProvider(address addr) isPatron {\nprovider = addr;\n}\n******************/\n\nfunction setProviderName(string name) public {\n    providerName = name;\n}\n\nfunction addViewerGroup() public isPatron {\n    viewerGroups.length += 1;\n}\n\nfunction removeViewerGroup(uint viewerGroup) public isPatron {\n    uint numViewers = viewerGroups[viewerGroup].length;\n    uint i;\n    for(i = 0; i < numViewers; i++) {\n        isViewer[viewerGroups[viewerGroup][i]] = false;\n    }\n\n    uint numGroups = viewerGroups.length;\n    for(i = viewerGroup+1; i < numGroups; i++) {\n        viewerGroups[i - 1] = viewerGroups[i];\n    }\n    delete(viewerGroups[numGroups-1]);\n    viewerGroups.length -= 1;\n}\n\nfunction addViewer(string name, uint viewerGroup, address viewer) public isPatron {\n    require(!isViewer[viewer]);\n\n    isViewer[viewer] = true;\n    viewerGroups[viewerGroup].push(viewer);\n    viewerInfo[viewer] = Viewer(name, viewer);\n}\n\nfunction removeViewer(uint viewerGroup, address viewer) public isPatron {\n    require(isViewer[viewer]);\n\n    isViewer[viewer] = false;\n    uint numViewers = viewerGroups[viewerGroup].length;\n    bool overwrite = false;\n    for(uint i = 0; i < numViewers; i++) {\n        if(overwrite) {\n            viewerGroups[viewerGroup][i - 1] = viewerGroups[viewerGroup][i];\n        }\n        if(viewerGroups[viewerGroup][i] == viewer) {\n            overwrite = true;\n        }\n    }\n    delete(viewerGroups[viewerGroup][numViewers-1]);\n    viewerGroups[viewerGroup].length -= 1;\n    delete(viewerInfo[viewer]);\n}\n\nfunction getNumViewerGroups() public constant returns(uint) {\n    return viewerGroups.length;\n}\n\nfunction getNumViewers(uint group) public constant returns(uint) {\n    return viewerGroups[group].length;\n}\n\nfunction getViewer(uint group, uint index) public constant returns(address) {\n  return viewerGroups[group][index];\n}\n\nfunction getViewerByName(string name) public constant returns(address) {\n    return viewerByName[name];\n}\n\nfunction getViewerName(address addr) public constant returns(string) {\n    return viewerInfo[addr].name;\n}\n\nfunction terminate() public {\n    if(msg.sender != patron && msg.sender != provider) revert();\n    selfdestruct(patron);\n}\n}\n",
  "sourcePath": "/home/firescar96/Documents/MIT/MEng/research/medrec/SmartContracts/contracts/Relationship.sol",
  "compiler": {
    "name": "solc",
    "version": "0.4.19+commit.c4cbbb05.Emscripten.clang"
  },
  "schemaVersion": "2.0.0",
  "updatedAt": "2018-04-19T21:41:07.966Z"
}